:020000040800F2
:1000000000080020917203088161010895610108D0
:1000100097610108996101089B61010800000000D7
:100020000000000000000000000000009D610108C9
:100030009F61010800000000A1610108A56101089D
:10004000917C0308937C0308957C0308977C030844
:10005000997C03089B7C03089D7C03089F7C030814
:10006000A17C0308A37C0308A57C0308A77C0308E4
:10007000A97C0308AB7C0308AD7C0308AF7C0308B4
:10008000B17C0308B37C0308B57C0308B77C030884
:10009000B97C0308BB7C0308BD7C0308BF7C030854
:1000A000C17C0308C37C0308C57C0308C77C030824
:1000B000BD610108CB7C0308E9610108CF7C03081E
:1000C000D17C0308D37C0308D57C0308D77C0308C4
:1000D000D97C0308F961010801620108DF7C03088B
:1000E000E17C0308E37C0308E57C0308E77C030864
:1000F000E97C0308EB7C0308ED7C0308EF7C030834
:10010000F17C0308F37C0308F57C0308F77C030803
:10011000F97C0308FB7C0308FD7C0308FF7C0308D3
:10012000017D0308037D0308057D0308077D03089F
:10013000060601000873030806060100147303088D
:100140000606010020730308060601002C7303084D
:10015000060601003873030806060100447303080D
:100160000606010050730308060601005C730308CD
:10017000060601006873030806060100747303088D
:100180000606010080730308060601008C7303084D
:10019000060601009873030806060100A47303080D
:1001A00006060100B073030806060100BC730308CD
:1001B00006060100C873030806060100D47303088D
:1001C00006060100E073030806060100EC7303084D
:1001D00006060100F873030806060100047403080C
:1001E0000606010010740308060601001C740308CB
:1001F000060601002874030806060100347403088B
:100200000606010040740308060601004C7403084A
:10021000060601005874030806060100647403080A
:100220000606010070740308060601007C740308CA
:10023000060601008874030806060100947403088A
:1002400006060100A074030806060100AC7403084A
:1002500006060100B874030806060100C47403080A
:1002600006060100D074030806060100DC740308CA
:1002700006060100E874030806060100F47403088A
:100280000606010000750308060601000C75030848
:100290000606010018750308060601002475030808
:1002A0000606010030750308060601003C750308C8
:1002B0000606010048750308060601005475030888
:1002C0000606010060750308060601006C75030848
:1002D0000606010078750308060601008475030808
:1002E0000606010090750308060601009C750308C8
:1002F00006060100A875030806060100B475030888
:1003000006060100C075030806060100CC75030847
:1003100006060100D875030806060100E475030807
:1003200006060100F075030806060100FC750308C7
:100330000606010008760308060601001476030885
:100340000606010020760308060601002C76030845
:100350000606010038760308060601004476030805
:100360000606010050760308060601005C760308C5
:100370000606010068760308060601007476030885
:100380000606010080760308060601008C76030845
:10039000060601009876030806060100A476030805
:1003A00006060100B076030806060100BC760308C5
:1003B00006060100C876030806060100D476030885
:1003C00006060100E076030806060100EC76030845
:1003D00006060100F8760308060601000477030804
:1003E0000606010010770308060601001C770308C3
:1003F0000606010028770308060601003477030883
:100400000606010040770308060601004C77030842
:100410000606010058770308060601006477030802
:100420000606010070770308060601007C770308C2
:100430000C0C0200646B01080C0C02007C6B0108C0
:100440000C0C0200946B01080C0C0200AC6B010850
:100450000C0C0200C46B01080C0C0200DC6B0108E0
:100460000C0C0200F46B01080C0C02000C6C01086F
:100470000C0C0200246C01080C0C02003C6C0108FE
:100480000C0C0200546C01080C0C02006C6C01088E
:100490000C0C0200846C01080C0C02009C6C01081E
:1004A0000C0C0200B46C01080C0C0200CC6C0108AE
:1004B0000C0C0200E46C01080C0C0200FC6C01083E
:1004C0000C0C0200146D01080C0C02002C6D0108CC
:1004D0000C0C0200446D01080C0C02005C6D01085C
:1004E0000C0C0200746D01080C0C02008C6D0108EC
:1004F0000C0C0200A46D01080C0C0200BC6D01087C
:100500000C0C0200D46D01080C0C0200EC6D01080B
:100510000C0C0200046E01080C0C02001C6E010899
:100520000C0C0200346E01080C0C02004C6E010829
:100530000C0C0200646E01080C0C02007C6E0108B9
:100540000C0C0200946E01080C0C0200AC6E010849
:100550000C0C0200C46E01080C0C0200DC6E0108D9
:100560000C0C0200F46E01080C0C02000C6F010868
:100570000C0C0200246F01080C0C02003C6F0108F7
:100580000C0C0200546F01080C0C02006C6F010887
:100590000C0C0200846F01080C0C02009C6F010817
:1005A0000C0C0200B46F01080C0C0200CC6F0108A7
:1005B0000C0C0200E46F01080C0C0200FC6F010837
:1005C0000C0C0200147001080C0C02002C700108C5
:1005D0000C0C0200447001080C0C02005C70010855
:1005E0000C0C0200747001080C0C02008C700108E5
:1005F0000C0C0200A47001080C0C0200BC70010875
:100600000C0C0200D47001080C0C0200EC70010804
:100610000C0C0200047101080C0C02001C71010892
:100620000C0C0200347101080C0C02004C71010822
:100630000C0C0200647101080C0C02007C710108B2
:100640000C0C0200947101080C0C0200AC71010842
:100650000C0C0200C47101080C0C0200DC710108D2
:100660000C0C0200F47101080C0C02000C72010861
:100670000C0C0200247201080C0C02003C720108F0
:100680000C0C0200547201080C0C02006C72010880
:100690000C0C0200847201080C0C02009C72010810
:1006A0000C0C0200B47201080C0C0200CC720108A0
:1006B0000C0C0200E47201080C0C0200FC72010830
:1006C0000C0C0200147301080C0C02002C730108BE
:1006D0000C0C0200447301080C0C02005C7301084E
:1006E0000C0C0200747301080C0C02008C730108DE
:1006F0000C0C0200A47301080C0C0200BC7301086E
:100700000C0C0200D47301080C0C0200EC730108FD
:100710000C0C0200047401080C0C02001C7401088B
:100720000C0C0200347401080C0C02004C7401081B
:100730000C0C0200647401080C0C02007C740108AB
:100740000C0C0200947401080C0C0200AC7401083B
:100750000C0C0200C47401080C0C0200DC740108CB
:100760000C0C0200F47401080C0C02000C7501085A
:100770000C0C0200247501080C0C02003C750108E9
:100780000C0C0200547501080C0C02006C75010879
:100790000C0C0200847501080C0C02009C75010809
:1007A0000C0C0200B47501080C0C0200CC75010899
:1007B0000C0C0200E47501080C0C0200FC75010829
:1007C0000C0C0200147601080C0C02002C760108B7
:1007D0000C0C0200447601080C0C02005C76010847
:1007E0000C0C0200747601080C0C02008C760108D7
:1007F0000C0C0200A47601080C0C0200BC76010867
:100800000C0C0200D47601080C0C0200EC760108F6
:100810000C0C0200047701080C0C02001C77010884
:100820000C0C0200347701080C0C02004C77010814
:100830000C0C0200647701080C0C02007C770108A4
:100840000C0C0200947701080C0C0200AC77010834
:100850000C0C0200C47701080C0C0200DC770108C4
:100860000C0C0200F47701080C0C02000C78010853
:100870000C0C0200247801080C0C02003C780108E2
:100880000C0C0200547801080C0C02006C78010872
:100890000C0C0200847801080C0C02009C78010802
:1008A0000C0C0200B47801080C0C0200CC78010892
:1008B0000C0C0200E47801080C0C0200FC78010822
:1008C0000C0C0200147901080C0C02002C790108B0
:1008D0000C0C0200447901080C0C02005C79010840
:1008E0000C0C0200747901080C0C02008C790108D0
:1008F0000C0C0200A47901080C0C0200BC79010860
:100900000C0C0200D47901080C0C0200EC790108EF
:100910000C0C0200047A01080C0C02001C7A01087D
:100920000C0C0200347A01080C0C02004C7A01080D
:100930000C0C0200647A01080C0C02007C7A01089D
:100940000C0C0200947A01080C0C0200AC7A01082D
:100950000C0C0200C47A01080C0C0200DC7A0108BD
:100960000C0C0200F47A01080C0C02000C7B01084C
:100970000C0C0200247B01080C0C02003C7B0108DB
:100980000C0C0200547B01080C0C02006C7B01086B
:100990000C0C0200847B01080C0C02009C7B0108FB
:1009A0000C0C0200B47B01080C0C0200CC7B01088B
:1009B0000C0C0200E47B01080C0C0200FC7B01081B
:1009C0000C0C0200147C01080C0C02002C7C0108A9
:1009D0000C0C0200447C01080C0C02005C7C010839
:1009E0000C0C0200747C01080C0C02008C7C0108C9
:1009F0000C0C0200A47C01080C0C0200BC7C010859
:100A00000C0C0200D47C01080C0C0200EC7C0108E8
:100A10000C0C0200047D01080C0C02001C7D010876
:100A20000C0C0200347D01080C0C02004C7D010806
:100A30000C0C0200647D01080C0C02007C7D010896
:100A40000C0C0200947D01080C0C0200AC7D010826
:100A50000C0C0200C47D01080C0C0200DC7D0108B6
:100A60000C0C0200F47D01080C0C02000C7E010845
:100A70000C0C0200247E01080C0C02003C7E0108D4
:100A80000C0C0200547E01080C0C02006C7E010864
:100A90000C0C0200847E01080C0C02009C7E0108F4
:100AA0000C0C0200B47E01080C0C0200CC7E010884
:100AB0000C0C0200E47E01080C0C0200FC7E010814
:100AC0000C0C0200147F01080C0C02002C7F0108A2
:100AD0000C0C0200447F01080C0C02005C7F010832
:100AE0000C0C0200747F01080C0C02008C7F0108C2
:100AF0000C0C0200A47F01080C0C0200BC7F010852
:100B00000C0C0200D47F01080C0C0200EC7F0108E1
:100B10000C0C0200048001080C0C02001C8001086F
:100B20000C0C0200348001080C0C02004C800108FF
:100B30000C0C0200648001080C0C02007C8001088F
:100B40000C0C0200948001080C0C0200AC8001081F
:100B50000C0C0200C48001080C0C0200DC800108AF
:100B60000C0C0200F48001080C0C02000C8101083E
:100B70000C0C0200248101080C0C02003C810108CD
:100B80000C0C0200548101080C0C02006C8101085D
:100B90000C0C0200848101080C0C02009C810108ED
:100BA0000C0C0200B48101080C0C0200CC8101087D
:100BB0000C0C0200E48101080C0C0200FC8101080D
:100BC0000C0C0200148201080C0C02002C8201089B
:100BD0000C0C0200448201080C0C02005C8201082B
:100BE0000C0C0200748201080C0C02008C820108BB
:100BF0000C0C0200A48201080C0C0200BC8201084B
:100C00000C0C0200D48201080C0C0200EC820108DA
:100C10000C0C0200048301080C0C02001C83010868
:100C20000C0C0200348301080C0C02004C830108F8
:100C30000C0C0200648301080C0C02007C83010888
:100C40000C0C0200948301080C0C0200AC83010818
:100C50000C0C0200C48301080C0C0200DC830108A8
:100C60000C0C0200F48301080C0C02000C84010837
:100C70000C0C0200248401080C0C02003C840108C6
:100C80000C0C0200548401080C0C02006C84010856
:100C90000C0C0200848401080C0C02009C840108E6
:100CA0000C0C0200B48401080C0C0200CC84010876
:100CB0000C0C0200E48401080C0C0200FC84010806
:100CC0000C0C0200148501080C0C02002C85010894
:100CD0000C0C0200448501080C0C02005C85010824
:100CE0000C0C0200748501080C0C02008C850108B4
:100CF0000C0C0200A48501080C0C0200BC85010844
:100D00000C0C0200D48501080C0C0200EC850108D3
:100D10000C0C0200048601080C0C02001C86010861
:100D20000C0C0200348601080C0C02004C860108F1
:100D30000C0C0200648601080C0C02007C86010881
:100D40000C0C0200948601080C0C0200AC86010811
:100D50000C0C0200C48601080C0C0200DC860108A1
:100D60000C0C0200F48601080C0C02000C87010830
:100D70000C0C0200248701080C0C02003C870108BF
:100D80000C0C0200548701080C0C02006C8701084F
:100D90000C0C0200848701080C0C02009C870108DF
:100DA0000C0C0200B48701080C0C0200CC8701086F
:100DB0000C0C0200E48701080C0C0200FC870108FF
:100DC0000C0C0200148801080C0C02002C8801088D
:100DD0000C0C0200448801080C0C02005C8801081D
:100DE0000C0C0200748801080C0C02008C880108AD
:100DF0000C0C0200A48801080C0C0200BC8801083D
:100E00000C0C0200D48801080C0C0200EC880108CC
:100E10000C0C0200048901080C0C02001C8901085A
:100E20000C0C0200348901080C0C02004C890108EA
:100E30000C0C0200648901080C0C02007C8901087A
:100E40000C0C0200948901080C0C0200AC8901080A
:100E50000C0C0200C48901080C0C0200DC8901089A
:100E60000C0C0200F48901080C0C02000C8A010829
:100E70000C0C0200248A01080C0C02003C8A0108B8
:100E80000C0C0200548A01080C0C02006C8A010848
:100E90000C0C0200848A01080C0C02009C8A0108D8
:100EA0000C0C0200B48A01080C0C0200CC8A010868
:100EB0000C0C0200E48A01080C0C0200FC8A0108F8
:100EC0000C0C0200148B01080C0C02002C8B010886
:100ED0000C0C0200448B01080C0C02005C8B010816
:100EE0000C0C0200748B01080C0C02008C8B0108A6
:100EF0000C0C0200A48B01080C0C0200BC8B010836
:100F00000C0C0200D48B01080C0C0200EC8B0108C5
:100F10000C0C0200048C01080C0C02001C8C010853
:100F20000C0C0200348C01080C0C02004C8C0108E3
:100F30000C0C0200648C01080C0C02007C8C010873
:100F40000C0C0200948C01080C0C0200AC8C010803
:100F50000C0C0200C48C01080C0C0200DC8C010893
:100F60000C0C0200F48C01080C0C02000C8D010822
:100F70000C0C0200248D01080C0C02003C8D0108B1
:100F80000C0C0200548D01080C0C02006C8D010841
:100F90000C0C0200848D01080C0C02009C8D0108D1
:100FA0000C0C0200B48D01080C0C0200CC8D010861
:100FB0000C0C0200E48D01080C0C0200FC8D0108F1
:100FC0000C0C0200148E01080C0C02002C8E01087F
:100FD0000C0C0200448E01080C0C02005C8E01080F
:100FE0000C0C0200748E01080C0C02008C8E01089F
:100FF0000C0C0200A48E01080C0C0200BC8E01082F
:101000000C0C0200D48E01080C0C0200EC8E0108BE
:101010000C0C0200048F01080C0C02001C8F01084C
:101020000C0C0200348F01080C0C02004C8F0108DC
:101030000C0C0200648F01080C0C02007C8F01086C
:101040000C0C0200948F01080C0C0200AC8F0108FC
:101050000C0C0200C48F01080C0C0200DC8F01088C
:101060000C0C0200F48F01080C0C02000C9001081B
:101070000C0C0200249001080C0C02003C900108AA
:101080000C0C0200549001080C0C02006C9001083A
:101090000C0C0200849001080C0C02009C900108CA
:1010A0000C0C0200B49001080C0C0200CC9001085A
:1010B0000C0C0200E49001080C0C0200FC900108EA
:1010C0000C0C0200149101080C0C02002C91010878
:1010D0000C0C0200449101080C0C02005C91010808
:1010E0000C0C0200749101080C0C02008C91010898
:1010F0000C0C0200A49101080C0C0200BC91010828
:101100000C0C0200D49101080C0C0200EC910108B7
:101110000C0C0200049201080C0C02001C92010845
:101120000C0C0200349201080C0C02004C920108D5
:101130000C0C0200649201080C0C02007C92010865
:101140000C0C0200949201080C0C0200AC920108F5
:101150000C0C0200C49201080C0C0200DC92010885
:101160000C0C0200F49201080C0C02000C93010814
:101170000C0C0200249301080C0C02003C930108A3
:101180000C0C0200549301080C0C02006C93010833
:101190000C0C0200849301080C0C02009C930108C3
:1011A0000C0C0200B49301080C0C0200CC93010853
:1011B0000C0C0200E49301080C0C0200FC930108E3
:1011C0000C0C0200149401080C0C02002C94010871
:1011D0000C0C0200449401080C0C02005C94010801
:1011E0000C0C0200749401080C0C02008C94010891
:1011F0000C0C0200A49401080C0C0200BC94010821
:101200000C0C0200D49401080C0C0200EC940108B0
:101210000C0C0200049501080C0C02001C9501083E
:101220000C0C0200349501080C0C02004C950108CE
:101230000C0C0200649501080C0C02007C9501085E
:101240000C0C0200949501080C0C0200AC950108EE
:101250000C0C0200C49501080C0C0200DC9501087E
:101260000C0C0200F49501080C0C02000C9601080D
:101270000C0C0200249601080C0C02003C9601089C
:101280000C0C0200549601080C0C02006C9601082C
:101290000C0C0200849601080C0C02009C960108BC
:1012A0000C0C0200B49601080C0C0200CC9601084C
:1012B0000C0C0200E49601080C0C0200FC960108DC
:1012C0000C0C0200149701080C0C02002C9701086A
:1012D0000C0C0200449701080C0C02005C970108FA
:1012E0000C0C0200749701080C0C02008C9701088A
:1012F0000C0C0200A49701080C0C0200BC9701081A
:101300000C0C0200D49701080C0C0200EC970108A9
:101310000C0C0200049801080C0C02001C98010837
:101320000C0C0200349801080C0C02004C980108C7
:101330000C0C0200649801080C0C02007C98010857
:101340000C0C0200949801080C0C0200AC980108E7
:101350000C0C0200C49801080C0C0200DC98010877
:101360000C0C0200F49801080C0C02000C99010806
:101370000C0C0200249901080C0C02003C99010895
:101380000C0C0200549901080C0C02006C99010825
:101390000C0C0200849901080C0C02009C990108B5
:1013A0000C0C0200B49901080C0C0200CC99010845
:1013B0000C0C0200E49901080C0C0200FC990108D5
:1013C0000C0C0200149A01080C0C02002C9A010863
:1013D0000C0C0200449A01080C0C02005C9A0108F3
:1013E0000C0C0200749A01080C0C02008C9A010883
:1013F0000C0C0200A49A01080C0C0200BC9A010813
:101400000C0C0200D49A01080C0C0200EC9A0108A2
:101410000C0C0200049B01080C0C02001C9B010830
:101420000C0C0200349B01080C0C02004C9B0108C0
:101430000C0C0200649B01080C0C02007C9B010850
:101440000C0C0200949B01080C0C0200AC9B0108E0
:101450000C0C0200C49B01080C0C0200DC9B010870
:101460000C0C0200F49B01080C0C02000C9C0108FF
:101470000C0C0200249C01080C0C02003C9C01088E
:101480000C0C0200549C01080C0C02006C9C01081E
:101490000C0C0200849C01080C0C02009C9C0108AE
:1014A0000C0C0200B49C01080C0C0200CC9C01083E
:1014B0000C0C0200E49C01080C0C0200FC9C0108CE
:1014C0000C0C0200149D01080C0C02002C9D01085C
:1014D0000C0C0200449D01080C0C02005C9D0108EC
:1014E0000C0C0200749D01080C0C02008C9D01087C
:1014F0000C0C0200A49D01080C0C0200BC9D01080C
:101500000C0C0200D49D01080C0C0200EC9D01089B
:101510000C0C0200049E01080C0C02001C9E010829
:101520000C0C0200349E01080C0C02004C9E0108B9
:101530000C0C0200649E01080C0C02007C9E010849
:101540000C0C0200949E01080C0C0200AC9E0108D9
:101550000C0C0200C49E01080C0C0200DC9E010869
:101560000C0C0200F49E01080C0C02000C9F0108F8
:101570000C0C0200249F01080C0C02003C9F010887
:101580000C0C0200549F01080C0C02006C9F010817
:101590000C0C0200849F01080C0C02009C9F0108A7
:1015A0000C0C0200B49F01080C0C0200CC9F010837
:1015B0000C0C0200E49F01080C0C0200FC9F0108C7
:1015C0000C0C020014A001080C0C02002CA0010855
:1015D0000C0C020044A001080C0C02005CA00108E5
:1015E0000C0C020074A001080C0C02008CA0010875
:1015F0000C0C0200A4A001080C0C0200BCA0010805
:101600000C0C0200D4A001080C0C0200ECA0010894
:101610000C0C020004A101080C0C02001CA1010822
:101620000C0C020034A101080C0C02004CA10108B2
:101630000C0C020064A101080C0C02007CA1010842
:101640000C0C020094A101080C0C0200ACA10108D2
:101650000C0C0200C4A101080C0C0200DCA1010862
:101660000C0C0200F4A101080C0C02000CA20108F1
:101670000C0C020024A201080C0C02003CA2010880
:101680000C0C020054A201080C0C02006CA2010810
:101690000C0C020084A201080C0C02009CA20108A0
:1016A0000C0C0200B4A201080C0C0200CCA2010830
:1016B0000C0C0200E4A201080C0C0200FCA20108C0
:1016C0000C0C020014A301080C0C02002CA301084E
:1016D0000C0C020044A301080C0C02005CA30108DE
:1016E0000C0C020074A301080C0C02008CA301086E
:1016F0000C0C0200A4A301080C0C0200BCA30108FE
:101700000C0C0200D4A301080C0C0200ECA301088D
:101710000C0C020004A401080C0C02001CA401081B
:101720000C0C020034A401080C0C02004CA40108AB
:101730000C0C020064A401080C0C02007CA401083B
:101740000C0C020094A401080C0C0200ACA40108CB
:101750000C0C0200C4A401080C0C0200DCA401085B
:101760000C0C0200F4A401080C0C02000CA50108EA
:101770000C0C020024A501080C0C02003CA5010879
:101780000C0C020054A501080C0C02006CA5010809
:101790000C0C020084A501080C0C02009CA5010899
:1017A0000C0C0200B4A501080C0C0200CCA5010829
:1017B0000C0C0200E4A501080C0C0200FCA50108B9
:1017C0000C0C020014A601080C0C02002CA6010847
:1017D0000C0C020044A601080C0C02005CA60108D7
:1017E0000C0C020074A601080C0C02008CA6010867
:1017F0000C0C0200A4A601080C0C0200BCA60108F7
:101800000C0C0200D4A601080C0C0200ECA6010886
:101810000C0C020004A701080C0C02001CA7010814
:101820000C0C020034A701080C0C02004CA70108A4
:101830000C0C020064A701080C0C02007CA7010834
:101840000C0C020094A701080C0C0200ACA70108C4
:101850000C0C0200C4A701080C0C0200DCA7010854
:101860000C0C0200F4A701080C0C02000CA80108E3
:101870000C0C020024A801080C0C02003CA8010872
:101880000C0C020054A801080C0C02006CA8010802
:101890000C0C020084A801080C0C02009CA8010892
:1018A0000C0C0200B4A801080C0C0200CCA8010822
:1018B0000C0C0200E4A801080C0C0200FCA80108B2
:1018C00006060100887703080606010094770308DE
:1018D00006060100A077030806060100AC7703089E
:1018E00006060100B877030806060100C47703085E
:1018F00006060100D077030806060100DC7703081E
:1019000006060100E877030806060100F4770308DD
:101910000606010000780308060601000C7803089B
:10192000060601001878030806060100247803085B
:101930000606010030780308060601003C7803081B
:1019400006060100487803080606010054780308DB
:101950000606010060780308060601006C7803089B
:10196000060601007878030806060100847803085B
:101970000606010090780308060601009C7803081B
:1019800006060100A878030806060100B4780308DB
:1019900006060100C078030806060100CC7803089B
:1019A00006060100D878030806060100E47803085B
:1019B00006060100F078030806060100FC7803081B
:1019C0000C0C020014A901080C0C02002CA901083F
:1019D0000C0C020044A901080C0C02005CA90108CF
:1019E0000C0C020074A901080C0C02008CA901085F
:1019F0000C0C0200A4A901080C0C0200BCA90108EF
:101A00000C0C0200D4A901080C0C0200ECA901087E
:101A10000C0C020004AA01080C0C02001CAA01080C
:101A20000C0C020034AA01080C0C02004CAA01089C
:101A30000C0C020064AA01080C0C02007CAA01082C
:101A40000C0C020094AA01080C0C0200ACAA0108BC
:101A50000C0C0200C4AA01080C0C0200DCAA01084C
:101A60000C0C0200F4AA01080C0C02000CAB0108DB
:101A70000C0C020024AB01080C0C02003CAB01086A
:101A80000C0C020054AB01080C0C02006CAB0108FA
:101A90000C0C020084AB01080C0C02009CAB01088A
:101AA0000C0C0200B4AB01080C0C0200CCAB01081A
:101AB0000C0C0200E4AB01080C0C0200FCAB0108AA
:101AC0000C0C020014AC01080C0C02002CAC010838
:101AD0000C0C020044AC01080C0C02005CAC0108C8
:101AE0000C0C020074AC01080C0C02008CAC010858
:101AF0000C0C0200A4AC01080C0C0200BCAC0108E8
:101B00000C0C0200D4AC01080C0C0200ECAC010877
:101B10000C0C020004AD01080C0C02001CAD010805
:101B20000C0C020034AD01080C0C02004CAD010895
:101B30000C0C020064AD01080C0C02007CAD010825
:101B40000C0C020094AD01080C0C0200ACAD0108B5
:101B50000C0C0200C4AD01080C0C0200DCAD010845
:101B60000C0C0200F4AD01080C0C02000CAE0108D4
:101B70000C0C020024AE01080C0C02003CAE010863
:101B80000C0C020054AE01080C0C02006CAE0108F3
:101B90000C0C020084AE01080C0C02009CAE010883
:101BA0000C0C0200B4AE01080C0C0200CCAE010813
:101BB0000C0C0200E4AE01080C0C0200FCAE0108A3
:101BC0000C0C020014AF01080C0C02002CAF010831
:101BD0000C0C020044AF01080C0C02005CAF0108C1
:101BE0000C0C020074AF01080C0C02008CAF010851
:101BF0000C0C0200A4AF01080C0C0200BCAF0108E1
:101C00000C0C0200D4AF01080C0C0200ECAF010870
:101C10000C0C020004B001080C0C02001CB00108FE
:101C20000C0C020034B001080C0C02004CB001088E
:101C30000C0C020064B001080C0C02007CB001081E
:101C40000C0C020094B001080C0C0200ACB00108AE
:101C50000C0C0200C4B001080C0C0200DCB001083E
:101C60000C0C0200F4B001080C0C02000CB10108CD
:101C70000C0C020024B101080C0C02003CB101085C
:101C80000C0C020054B101080C0C02006CB10108EC
:101C90000C0C020084B101080C0C02009CB101087C
:101CA0000C0C0200B4B101080C0C0200CCB101080C
:101CB0000C0C0200E4B101080C0C0200FCB101089C
:101CC0000C0C020014B201080C0C02002CB201082A
:101CD0000C0C020044B201080C0C02005CB20108BA
:101CE0000C0C020074B201080C0C02008CB201084A
:101CF0000C0C0200A4B201080C0C0200BCB20108DA
:101D00000C0C0200D4B201080C0C0200ECB2010869
:101D10000C0C020004B301080C0C02001CB30108F7
:101D20000C0C020034B301080C0C02004CB3010887
:101D30000C0C020064B301080C0C02007CB3010817
:101D40000C0C020094B301080C0C0200ACB30108A7
:101D50000C0C0200C4B301080C0C0200DCB3010837
:101D60000C0C0200F4B301080C0C02000CB40108C6
:101D70000C0C020024B401080C0C02003CB4010855
:101D80000C0C020054B401080C0C02006CB40108E5
:101D90000C0C020084B401080C0C02009CB4010875
:101DA0000C0C0200B4B401080C0C0200CCB4010805
:101DB0000C0C0200E4B401080C0C0200FCB4010895
:101DC0000C0C020014B501080C0C02002CB5010823
:101DD0000C0C020044B501080C0C02005CB50108B3
:101DE0000C0C020074B501080C0C02008CB5010843
:101DF0000C0C0200A4B501080C0C0200BCB50108D3
:101E00000C0C0200D4B501080C0C0200ECB5010862
:101E10000C0C020004B601080C0C02001CB60108F0
:101E20000C0C020034B601080C0C02004CB6010880
:101E30000C0C020064B601080C0C02007CB6010810
:101E40000C0C020094B601080C0C0200ACB60108A0
:101E50000C0C0200C4B601080C0C0200DCB6010830
:101E60000C0C0200F4B601080C0C02000CB70108BF
:101E70000C0C020024B701080C0C02003CB701084E
:101E80000C0C020054B701080C0C02006CB70108DE
:101E90000C0C020084B701080C0C02009CB701086E
:101EA0000C0C0200B4B701080C0C0200CCB70108FE
:101EB0000C0C0200E4B701080C0C0200FCB701088E
:101EC0000C0C020014B801080C0C02002CB801081C
:101ED0000C0C020044B801080C0C02005CB80108AC
:101EE0000C0C020074B801080C0C02008CB801083C
:101EF0000C0C0200A4B801080C0C0200BCB80108CC
:101F00000C0C0200D4B801080C0C0200ECB801085B
:101F10000C0C020004B901080C0C02001CB90108E9
:101F20000C0C020034B901080C0C02004CB9010879
:101F30000C0C020064B901080C0C02007CB9010809
:101F40000C0C020094B901080C0C0200ACB9010899
:101F50000C0C0200C4B901080C0C0200DCB9010829
:101F60000C0C0200F4B901080C0C02000CBA0108B8
:101F70000C0C020024BA01080C0C02003CBA010847
:101F80000C0C020054BA01080C0C02006CBA0108D7
:101F90000C0C020084BA01080C0C02009CBA010867
:101FA0000C0C0200B4BA01080C0C0200CCBA0108F7
:101FB0000C0C0200E4BA01080C0C0200FCBA010887
:101FC0000C0C020014BB01080C0C02002CBB010815
:101FD0000C0C020044BB01080C0C02005CBB0108A5
:101FE0000C0C020074BB01080C0C02008CBB010835
:101FF0000C0C0200A4BB01080C0C0200BCBB0108C5
:102000000C0C0200D4BB01080C0C0200ECBB010854
:102010000C0C020004BC01080C0C02001CBC0108E2
:102020000C0C020034BC01080C0C02004CBC010872
:102030000C0C020064BC01080C0C02007CBC010802
:102040000C0C020094BC01080C0C0200ACBC010892
:102050000C0C0200C4BC01080C0C0200DCBC010822
:102060000C0C0200F4BC01080C0C02000CBD0108B1
:102070000C0C020024BD01080C0C02003CBD010840
:102080000C0C020054BD01080C0C02006CBD0108D0
:102090000C0C020084BD01080C0C02009CBD010860
:1020A0000C0C0200B4BD01080C0C0200CCBD0108F0
:1020B0000C0C0200E4BD01080C0C0200FCBD010880
:1020C0000C0C020014BE01080C0C02002CBE01080E
:1020D0000C0C020044BE01080C0C02005CBE01089E
:1020E0000C0C020074BE01080C0C02008CBE01082E
:1020F0000C0C0200A4BE01080C0C0200BCBE0108BE
:102100000C0C0200D4BE01080C0C0200ECBE01084D
:102110000C0C020004BF01080C0C02001CBF0108DB
:102120000C0C020034BF01080C0C02004CBF01086B
:102130000C0C020064BF01080C0C02007CBF0108FB
:102140000C0C020094BF01080C0C0200ACBF01088B
:102150000C0C0200C4BF01080C0C0200DCBF01081B
:102160000C0C0200F4BF01080C0C02000CC00108AA
:102170000C0C020024C001080C0C02003CC0010839
:102180000C0C020054C001080C0C02006CC00108C9
:102190000C0C020084C001080C0C02009CC0010859
:1021A0000C0C0200B4C001080C0C0200CCC00108E9
:1021B0000C0C0200E4C001080C0C0200FCC0010879
:1021C0000C0C020014C101080C0C02002CC1010807
:1021D0000C0C020044C101080C0C02005CC1010897
:1021E0000C0C020074C101080C0C02008CC1010827
:1021F0000C0C0200A4C101080C0C0200BCC10108B7
:102200000C0C0200D4C101080C0C0200ECC1010846
:102210000C0C020004C201080C0C02001CC20108D4
:102220000C0C020034C201080C0C02004CC2010864
:102230000C0C020064C201080C0C02007CC20108F4
:102240000C0C020094C201080C0C0200ACC2010884
:102250000C0C0200C4C201080C0C0200DCC2010814
:102260000C0C0200F4C201080C0C02000CC30108A3
:102270000C0C020024C301080C0C02003CC3010832
:102280000C0C020054C301080C0C02006CC30108C2
:102290000C0C020084C301080C0C02009CC3010852
:1022A0000C0C0200B4C301080C0C0200CCC30108E2
:1022B0000C0C0200E4C301080C0C0200FCC3010872
:1022C0000C0C020014C401080C0C02002CC4010800
:1022D0000C0C020044C401080C0C02005CC4010890
:1022E0000C0C020074C401080C0C02008CC4010820
:1022F0000C0C0200A4C401080C0C0200BCC40108B0
:102300000C0C0200D4C401080C0C0200ECC401083F
:102310000C0C020004C501080C0C02001CC50108CD
:102320000C0C020034C501080C0C02004CC501085D
:102330000C0C020064C501080C0C02007CC50108ED
:102340000C0C020094C501080C0C0200ACC501087D
:102350000C0C0200C4C501080C0C0200DCC501080D
:102360000C0C0200F4C501080C0C02000CC601089C
:102370000C0C020024C601080C0C02003CC601082B
:102380000C0C020054C601080C0C02006CC60108BB
:102390000C0C020084C601080C0C02009CC601084B
:1023A0000C0C0200B4C601080C0C0200CCC60108DB
:1023B0000C0C0200E4C601080C0C0200FCC601086B
:1023C0000C0C020014C701080C0C02002CC70108F9
:1023D0000C0C020044C701080C0C02005CC7010889
:1023E0000C0C020074C701080C0C02008CC7010819
:1023F0000C0C0200A4C701080C0C0200BCC70108A9
:102400000C0C0200D4C701080C0C0200ECC7010838
:102410000C0C020004C801080C0C02001CC80108C6
:102420000C0C020034C801080C0C02004CC8010856
:102430000C0C020064C801080C0C02007CC80108E6
:102440000C0C020094C801080C0C0200ACC8010876
:102450000C0C0200C4C801080C0C0200DCC8010806
:102460000C0C0200F4C801080C0C02000CC9010895
:102470000C0C020024C901080C0C02003CC9010824
:102480000C0C020054C901080C0C02006CC90108B4
:102490000C0C020084C901080C0C02009CC9010844
:1024A0000C0C0200B4C901080C0C0200CCC90108D4
:1024B0000C0C0200E4C901080C0C0200FCC9010864
:1024C0000C0C020014CA01080C0C02002CCA0108F2
:1024D0000C0C020044CA01080C0C02005CCA010882
:1024E0000C0C020074CA01080C0C02008CCA010812
:1024F0000C0C0200A4CA01080C0C0200BCCA0108A2
:102500000C0C0200D4CA01080C0C0200ECCA010831
:102510000C0C020004CB01080C0C02001CCB0108BF
:102520000C0C020034CB01080C0C02004CCB01084F
:102530000C0C020064CB01080C0C02007CCB0108DF
:102540000C0C020094CB01080C0C0200ACCB01086F
:102550000C0C0200C4CB01080C0C0200DCCB0108FF
:102560000C0C0200F4CB01080C0C02000CCC01088E
:102570000C0C020024CC01080C0C02003CCC01081D
:102580000C0C020054CC01080C0C02006CCC0108AD
:102590000C0C020084CC01080C0C02009CCC01083D
:1025A0000C0C0200B4CC01080C0C0200CCCC0108CD
:1025B0000C0C0200E4CC01080C0C0200FCCC01085D
:1025C0000C0C020014CD01080C0C02002CCD0108EB
:1025D0000C0C020044CD01080C0C02005CCD01087B
:1025E0000C0C020074CD01080C0C02008CCD01080B
:1025F0000C0C0200A4CD01080C0C0200BCCD01089B
:102600000C0C0200D4CD01080C0C0200ECCD01082A
:102610000C0C020004CE01080C0C02001CCE0108B8
:102620000C0C020034CE01080C0C02004CCE010848
:102630000C0C020064CE01080C0C02007CCE0108D8
:102640000C0C020094CE01080C0C0200ACCE010868
:102650000C0C0200C4CE01080C0C0200DCCE0108F8
:102660000C0C0200F4CE01080C0C02000CCF010887
:102670000C0C020024CF01080C0C02003CCF010816
:102680000C0C020054CF01080C0C02006CCF0108A6
:102690000C0C020084CF01080C0C02009CCF010836
:1026A0000C0C0200B4CF01080C0C0200CCCF0108C6
:1026B0000C0C0200E4CF01080C0C0200FCCF010856
:1026C0000C0C020014D001080C0C02002CD00108E4
:1026D0000C0C020044D001080C0C02005CD0010874
:1026E0000C0C020074D001080C0C02008CD0010804
:1026F0000C0C0200A4D001080C0C0200BCD0010894
:102700000C0C0200D4D001080C0C0200ECD0010823
:102710000C0C020004D101080C0C02001CD10108B1
:102720000C0C020034D101080C0C02004CD1010841
:102730000C0C020064D101080C0C02007CD10108D1
:102740000C0C020094D101080C0C0200ACD1010861
:102750000C0C0200C4D101080C0C0200DCD10108F1
:102760000C0C0200F4D101080C0C02000CD2010880
:102770000C0C020024D201080C0C02003CD201080F
:102780000C0C020054D201080C0C02006CD201089F
:102790000C0C020084D201080C0C02009CD201082F
:1027A0000C0C0200B4D201080C0C0200CCD20108BF
:1027B0000C0C0200E4D201080C0C0200FCD201084F
:1027C0000C0C020014D301080C0C02002CD30108DD
:1027D0000C0C020044D301080C0C02005CD301086D
:1027E0000C0C020074D301080C0C02008CD30108FD
:1027F0000C0C0200A4D301080C0C0200BCD301088D
:102800000C0C0200D4D301080C0C0200ECD301081C
:102810000C0C020004D401080C0C02001CD40108AA
:102820000C0C020034D401080C0C02004CD401083A
:102830000C0C020064D401080C0C02007CD40108CA
:102840000C0C020094D401080C0C0200ACD401085A
:102850000C0C0200C4D401080C0C0200DCD40108EA
:102860000C0C0200F4D401080C0C02000CD5010879
:102870000C0C020024D501080C0C02003CD5010808
:102880000C0C020054D501080C0C02006CD5010898
:102890000C0C020084D501080C0C02009CD5010828
:1028A0000C0C0200B4D501080C0C0200CCD50108B8
:1028B0000C0C0200E4D501080C0C0200FCD5010848
:1028C0000C0C020014D601080C0C02002CD60108D6
:1028D0000C0C020044D601080C0C02005CD6010866
:1028E0000C0C020074D601080C0C02008CD60108F6
:1028F0000C0C0200A4D601080C0C0200BCD6010886
:102900000C0C0200D4D601080C0C0200ECD6010815
:102910000C0C020004D701080C0C02001CD70108A3
:102920000C0C020034D701080C0C02004CD7010833
:102930000C0C020064D701080C0C02007CD70108C3
:102940000C0C020094D701080C0C0200ACD7010853
:102950000C0C0200C4D701080C0C0200DCD70108E3
:102960000C0C0200F4D701080C0C02000CD8010872
:102970000C0C020024D801080C0C02003CD8010801
:102980000C0C020054D801080C0C02006CD8010891
:102990000C0C020084D801080C0C02009CD8010821
:1029A0000C0C0200B4D801080C0C0200CCD80108B1
:1029B0000C0C0200E4D801080C0C0200FCD8010841
:1029C0000C0C020014D901080C0C02002CD90108CF
:1029D0000C0C020044D901080C0C02005CD901085F
:1029E0000C0C020074D901080C0C02008CD90108EF
:1029F0000C0C0200A4D901080C0C0200BCD901087F
:102A00000C0C0200D4D901080C0C0200ECD901080E
:102A10000C0C020004DA01080C0C02001CDA01089C
:102A20000C0C020034DA01080C0C02004CDA01082C
:102A30000C0C020064DA01080C0C02007CDA0108BC
:102A40000C0C020094DA01080C0C0200ACDA01084C
:102A50000C0C0200C4DA01080C0C0200DCDA0108DC
:102A60000C0C0200F4DA01080C0C02000CDB01086B
:102A70000C0C020024DB01080C0C02003CDB0108FA
:102A80000C0C020054DB01080C0C02006CDB01088A
:102A90000C0C020084DB01080C0C02009CDB01081A
:102AA0000C0C0200B4DB01080C0C0200CCDB0108AA
:102AB0000C0C0200E4DB01080C0C0200FCDB01083A
:102AC0000C0C020014DC01080C0C02002CDC0108C8
:102AD0000C0C020044DC01080C0C02005CDC010858
:102AE0000C0C020074DC01080C0C02008CDC0108E8
:102AF0000C0C0200A4DC01080C0C0200BCDC010878
:102B00000C0C0200D4DC01080C0C0200ECDC010807
:102B10000C0C020004DD01080C0C02001CDD010895
:102B20000C0C020034DD01080C0C02004CDD010825
:102B30000C0C020064DD01080C0C02007CDD0108B5
:102B40000C0C020094DD01080C0C0200ACDD010845
:102B50000C0C0200C4DD01080C0C0200DCDD0108D5
:102B60000C0C0200F4DD01080C0C02000CDE010864
:102B70000C0C020024DE01080C0C02003CDE0108F3
:102B80000C0C020054DE01080C0C02006CDE010883
:102B90000C0C020084DE01080C0C02009CDE010813
:102BA0000C0C0200B4DE01080C0C0200CCDE0108A3
:102BB0000C0C0200E4DE01080C0C0200FCDE010833
:102BC0000C0C020014DF01080C0C02002CDF0108C1
:102BD0000C0C020044DF01080C0C02005CDF010851
:102BE0000C0C020074DF01080C0C02008CDF0108E1
:102BF0000C0C0200A4DF01080C0C0200BCDF010871
:102C00000C0C0200D4DF01080C0C0200ECDF010800
:102C10000C0C020004E001080C0C02001CE001088E
:102C20000C0C020034E001080C0C02004CE001081E
:102C30000C0C020064E001080C0C02007CE00108AE
:102C40000C0C020094E001080C0C0200ACE001083E
:102C50000C0C0200C4E001080C0C0200DCE00108CE
:102C60000C0C0200F4E001080C0C02000CE101085D
:102C70000C0C020024E101080C0C02003CE10108EC
:102C80000C0C020054E101080C0C02006CE101087C
:102C90000C0C020084E101080C0C02009CE101080C
:102CA0000C0C0200B4E101080C0C0200CCE101089C
:102CB0000C0C0200E4E101080C0C0200FCE101082C
:102CC0000C0C020014E201080C0C02002CE20108BA
:102CD0000C0C020044E201080C0C02005CE201084A
:102CE0000C0C020074E201080C0C02008CE20108DA
:102CF0000C0C0200A4E201080C0C0200BCE201086A
:102D00000C0C0200D4E201080C0C0200ECE20108F9
:102D10000C0C020004E301080C0C02001CE3010887
:102D20000C0C020034E301080C0C02004CE3010817
:102D30000C0C020064E301080C0C02007CE30108A7
:102D40000C0C020094E301080C0C0200ACE3010837
:102D50000C0C0200C4E301080C0C0200DCE30108C7
:102D60000C0C0200F4E301080C0C02000CE4010856
:102D70000C0C020024E401080C0C02003CE40108E5
:102D80000C0C020054E401080C0C02006CE4010875
:102D90000C0C020084E401080C0C02009CE4010805
:102DA0000C0C0200B4E401080C0C0200CCE4010895
:102DB0000C0C0200E4E401080C0C0200FCE4010825
:102DC0000C0C020014E501080C0C02002CE50108B3
:102DD0000C0C020044E501080C0C02005CE5010843
:102DE0000C0C020074E501080C0C02008CE50108D3
:102DF0000C0C0200A4E501080C0C0200BCE5010863
:102E00000C0C0200D4E501080C0C0200ECE50108F2
:102E10000C0C020004E601080C0C02001CE6010880
:102E20000C0C020034E601080C0C02004CE6010810
:102E30000C0C020064E601080C0C02007CE60108A0
:102E40000C0C020094E601080C0C0200ACE6010830
:102E50000C0C0200C4E601080C0C0200DCE60108C0
:102E60000C0C0200F4E601080C0C02000CE701084F
:102E70000C0C020024E701080C0C02003CE70108DE
:102E80000C0C020054E701080C0C02006CE701086E
:102E90000C0C020084E701080C0C02009CE70108FE
:102EA0000C0C0200B4E701080C0C0200CCE701088E
:102EB0000C0C0200E4E701080C0C0200FCE701081E
:102EC0000C0C020014E801080C0C02002CE80108AC
:102ED0000C0C020044E801080C0C02005CE801083C
:102EE0000C0C020074E801080C0C02008CE80108CC
:102EF0000C0C0200A4E801080C0C0200BCE801085C
:102F00000C0C0200D4E801080C0C0200ECE80108EB
:102F10000C0C020004E901080C0C02001CE9010879
:102F20000C0C020034E901080C0C02004CE9010809
:102F30000C0C020064E901080C0C02007CE9010899
:102F40000C0C020094E901080C0C0200ACE9010829
:102F50000C0C0200C4E901080C0C0200DCE90108B9
:102F60000C0C0200F4E901080C0C02000CEA010848
:102F70000C0C020024EA01080C0C02003CEA0108D7
:102F80000C0C020054EA01080C0C02006CEA010867
:102F90000C0C020084EA01080C0C02009CEA0108F7
:102FA0000C0C0200B4EA01080C0C0200CCEA010887
:102FB0000C0C0200E4EA01080C0C0200FCEA010817
:102FC0000C0C020014EB01080C0C02002CEB0108A5
:102FD0000C0C020044EB01080C0C02005CEB010835
:102FE0000C0C020074EB01080C0C02008CEB0108C5
:102FF0000C0C0200A4EB01080C0C0200BCEB010855
:103000000C0C0200D4EB01080C0C0200ECEB0108E4
:103010000C0C020004EC01080C0C02001CEC010872
:103020000C0C020034EC01080C0C02004CEC010802
:103030000C0C020064EC01080C0C02007CEC010892
:103040000C0C020094EC01080C0C0200ACEC010822
:103050000C0C0200C4EC01080C0C0200DCEC0108B2
:103060000C0C0200F4EC01080C0C02000CED010841
:103070000C0C020024ED01080C0C02003CED0108D0
:103080000C0C020054ED01080C0C02006CED010860
:103090000C0C020084ED01080C0C02009CED0108F0
:1030A0000C0C0200B4ED01080C0C0200CCED010880
:1030B0000C0C0200E4ED01080C0C0200FCED010810
:1030C0000C0C020014EE01080C0C02002CEE01089E
:1030D0000C0C020044EE01080C0C02005CEE01082E
:1030E0000C0C020074EE01080C0C02008CEE0108BE
:1030F0000C0C0200A4EE01080C0C0200BCEE01084E
:103100000C0C0200D4EE01080C0C0200ECEE0108DD
:103110000C0C020004EF01080C0C02001CEF01086B
:103120000C0C020034EF01080C0C02004CEF0108FB
:103130000C0C020064EF01080C0C02007CEF01088B
:103140000C0C020094EF01080C0C0200ACEF01081B
:103150000C0C0200C4EF01080C0C0200DCEF0108AB
:103160000C0C0200F4EF01080C0C02000CF001083A
:103170000C0C020024F001080C0C02003CF00108C9
:103180000C0C020054F001080C0C02006CF0010859
:103190000C0C020084F001080C0C02009CF00108E9
:1031A0000C0C0200B4F001080C0C0200CCF0010879
:1031B0000C0C0200E4F001080C0C0200FCF0010809
:1031C0000C0C020014F101080C0C02002CF1010897
:1031D0000C0C020044F101080C0C02005CF1010827
:1031E0000C0C020074F101080C0C02008CF10108B7
:1031F0000C0C0200A4F101080C0C0200BCF1010847
:103200000C0C0200D4F101080C0C0200ECF10108D6
:103210000C0C020004F201080C0C02001CF2010864
:103220000C0C020034F201080C0C02004CF20108F4
:103230000C0C020064F201080C0C02007CF2010884
:103240000C0C020094F201080C0C0200ACF2010814
:103250000C0C0200C4F201080C0C0200DCF20108A4
:103260000C0C0200F4F201080C0C02000CF3010833
:103270000C0C020024F301080C0C02003CF30108C2
:103280000C0C020054F301080C0C02006CF3010852
:103290000C0C020084F301080C0C02009CF30108E2
:1032A0000C0C0200B4F301080C0C0200CCF3010872
:1032B0000C0C0200E4F301080C0C0200FCF3010802
:1032C0000C0C020014F401080C0C02002CF4010890
:1032D0000C0C020044F401080C0C02005CF4010820
:1032E0000C0C020074F401080C0C02008CF40108B0
:1032F0000C0C0200A4F401080C0C0200BCF4010840
:103300000C0C0200D4F401080C0C0200ECF40108CF
:103310000C0C020004F501080C0C02001CF501085D
:103320000C0C020034F501080C0C02004CF50108ED
:103330000C0C020064F501080C0C02007CF501087D
:103340000C0C020094F501080C0C0200ACF501080D
:103350000C0C0200C4F501080C0C0200DCF501089D
:103360000C0C0200F4F501080C0C02000CF601082C
:103370000C0C020024F601080C0C02003CF60108BB
:103380000C0C020054F601080C0C02006CF601084B
:103390000C0C020084F601080C0C02009CF60108DB
:1033A0000C0C0200B4F601080C0C0200CCF601086B
:1033B0000C0C0200E4F601080C0C0200FCF60108FB
:1033C0000C0C020014F701080C0C02002CF7010889
:1033D0000C0C020044F701080C0C02005CF7010819
:1033E0000C0C020074F701080C0C02008CF70108A9
:1033F0000C0C0200A4F701080C0C0200BCF7010839
:103400000C0C0200D4F701080C0C0200ECF70108C8
:103410000C0C020004F801080C0C02001CF8010856
:103420000C0C020034F801080C0C02004CF80108E6
:103430000C0C020064F801080C0C02007CF8010876
:103440000C0C020094F801080C0C0200ACF8010806
:103450000C0C0200C4F801080C0C0200DCF8010896
:103460000C0C0200F4F801080C0C02000CF9010825
:103470000C0C020024F901080C0C02003CF90108B4
:103480000C0C020054F901080C0C02006CF9010844
:103490000C0C020084F901080C0C02009CF90108D4
:1034A0000C0C0200B4F901080C0C0200CCF9010864
:1034B0000C0C0200E4F901080C0C0200FCF90108F4
:1034C0000C0C020014FA01080C0C02002CFA010882
:1034D0000C0C020044FA01080C0C02005CFA010812
:1034E0000C0C020074FA01080C0C02008CFA0108A2
:1034F0000C0C0200A4FA01080C0C0200BCFA010832
:103500000C0C0200D4FA01080C0C0200ECFA0108C1
:103510000C0C020004FB01080C0C02001CFB01084F
:103520000C0C020034FB01080C0C02004CFB0108DF
:103530000C0C020064FB01080C0C02007CFB01086F
:103540000C0C020094FB01080C0C0200ACFB0108FF
:103550000C0C0200C4FB01080C0C0200DCFB01088F
:103560000C0C0200F4FB01080C0C02000CFC01081E
:103570000C0C020024FC01080C0C02003CFC0108AD
:103580000C0C020054FC01080C0C02006CFC01083D
:103590000C0C020084FC01080C0C02009CFC0108CD
:1035A0000C0C0200B4FC01080C0C0200CCFC01085D
:1035B0000C0C0200E4FC01080C0C0200FCFC0108ED
:1035C0000C0C020014FD01080C0C02002CFD01087B
:1035D0000C0C020044FD01080C0C02005CFD01080B
:1035E0000C0C020074FD01080C0C02008CFD01089B
:1035F0000C0C0200A4FD01080C0C0200BCFD01082B
:103600000C0C0200D4FD01080C0C0200ECFD0108BA
:103610000C0C020004FE01080C0C02001CFE010848
:103620000C0C020034FE01080C0C02004CFE0108D8
:103630000C0C020064FE01080C0C02007CFE010868
:103640000C0C020094FE01080C0C0200ACFE0108F8
:103650000C0C0200C4FE01080C0C0200DCFE010888
:103660000C0C0200F4FE01080C0C02000CFF010817
:103670000C0C020024FF01080C0C02003CFF0108A6
:103680000C0C020054FF01080C0C02006CFF010836
:103690000C0C020084FF01080C0C02009CFF0108C6
:1036A0000C0C0200B4FF01080C0C0200CCFF010856
:1036B0000C0C0200E4FF01080C0C0200FCFF0108E6
:1036C0000C0C0200140002080C0C02002C00020872
:1036D0000C0C0200440002080C0C02005C00020802
:1036E0000C0C0200740002080C0C02008C00020892
:1036F0000C0C0200A40002080C0C0200BC00020822
:103700000C0C0200D40002080C0C0200EC000208B1
:103710000C0C0200040102080C0C02001C0102083F
:103720000C0C0200340102080C0C02004C010208CF
:103730000C0C0200640102080C0C02007C0102085F
:103740000C0C0200940102080C0C0200AC010208EF
:103750000C0C0200C40102080C0C0200DC0102087F
:103760000C0C0200F40102080C0C02000C0202080E
:103770000C0C0200240202080C0C02003C0202089D
:103780000C0C0200540202080C0C02006C0202082D
:103790000C0C0200840202080C0C02009C020208BD
:1037A0000C0C0200B40202080C0C0200CC0202084D
:1037B0000C0C0200E40202080C0C0200FC020208DD
:1037C0000C0C0200140302080C0C02002C0302086B
:1037D0000C0C0200440302080C0C02005C030208FB
:1037E0000C0C0200740302080C0C02008C0302088B
:1037F0000C0C0200A40302080C0C0200BC0302081B
:103800000C0C0200D40302080C0C0200EC030208AA
:103810000C0C0200040402080C0C02001C04020838
:103820000C0C0200340402080C0C02004C040208C8
:103830000C0C0200640402080C0C02007C04020858
:103840000C0C0200940402080C0C0200AC040208E8
:103850000C0C0200C40402080C0C0200DC04020878
:103860000C0C0200F40402080C0C02000C05020807
:103870000C0C0200240502080C0C02003C05020896
:103880000C0C0200540502080C0C02006C05020826
:103890000C0C0200840502080C0C02009C050208B6
:1038A0000C0C0200B40502080C0C0200CC05020846
:1038B0000C0C0200E40502080C0C0200FC050208D6
:1038C0000C0C0200140602080C0C02002C06020864
:1038D0000C0C0200440602080C0C02005C060208F4
:1038E0000C0C0200740602080C0C02008C06020884
:1038F0000C0C0200A40602080C0C0200BC06020814
:103900000C0C0200D40602080C0C0200EC060208A3
:103910000C0C0200040702080C0C02001C07020831
:103920000C0C0200340702080C0C02004C070208C1
:103930000C0C0200640702080C0C02007C07020851
:103940000C0C0200940702080C0C0200AC070208E1
:103950000C0C0200C40702080C0C0200DC07020871
:103960000C0C0200F40702080C0C02000C08020800
:103970000C0C0200240802080C0C02003C0802088F
:103980000C0C0200540802080C0C02006C0802081F
:103990000C0C0200840802080C0C02009C080208AF
:1039A0000C0C0200B40802080C0C0200CC0802083F
:1039B0000C0C0200E40802080C0C0200FC080208CF
:1039C0000C0C0200140902080C0C02002C0902085D
:1039D0000C0C0200440902080C0C02005C090208ED
:1039E0000C0C0200740902080C0C02008C0902087D
:1039F0000C0C0200A40902080C0C0200BC0902080D
:103A00000C0C0200D40902080C0C0200EC0902089C
:103A10000C0C0200040A02080C0C02001C0A02082A
:103A20000C0C0200340A02080C0C02004C0A0208BA
:103A30000C0C0200640A02080C0C02007C0A02084A
:103A40000C0C0200940A02080C0C0200AC0A0208DA
:103A50000C0C0200C40A02080C0C0200DC0A02086A
:103A60000C0C0200F40A02080C0C02000C0B0208F9
:103A70000C0C0200240B02080C0C02003C0B020888
:103A80000C0C0200540B02080C0C02006C0B020818
:103A90000C0C0200840B02080C0C02009C0B0208A8
:103AA0000C0C0200B40B02080C0C0200CC0B020838
:103AB0000C0C0200E40B02080C0C0200FC0B0208C8
:103AC0000C0C0200140C02080C0C02002C0C020856
:103AD0000C0C0200440C02080C0C02005C0C0208E6
:103AE0000C0C0200740C02080C0C02008C0C020876
:103AF0000C0C0200A40C02080C0C0200BC0C020806
:103B00000C0C0200D40C02080C0C0200EC0C020895
:103B10000C0C0200040D02080C0C02001C0D020823
:103B20000C0C0200340D02080C0C02004C0D0208B3
:103B30000C0C0200640D02080C0C02007C0D020843
:103B40000C0C0200940D02080C0C0200AC0D0208D3
:103B50000C0C0200C40D02080C0C0200DC0D020863
:103B60000C0C0200F40D02080C0C02000C0E0208F2
:103B70000C0C0200240E02080C0C02003C0E020881
:103B80000C0C0200540E02080C0C02006C0E020811
:103B90000C0C0200840E02080C0C02009C0E0208A1
:103BA0000C0C0200B40E02080C0C0200CC0E020831
:103BB0000C0C0200E40E02080C0C0200FC0E0208C1
:103BC0000C0C0200140F02080C0C02002C0F02084F
:103BD0000C0C0200440F02080C0C02005C0F0208DF
:103BE0000C0C0200740F02080C0C02008C0F02086F
:103BF0000C0C0200A40F02080C0C0200BC0F0208FF
:103C00000C0C0200D40F02080C0C0200EC0F02088E
:103C10000C0C0200041002080C0C02001C1002081C
:103C20000C0C0200341002080C0C02004C100208AC
:103C30000C0C0200641002080C0C02007C1002083C
:103C40000C0C0200941002080C0C0200AC100208CC
:103C50000C0C0200C41002080C0C0200DC1002085C
:103C60000C0C0200F41002080C0C02000C110208EB
:103C70000C0C0200241102080C0C02003C1102087A
:103C80000C0C0200541102080C0C02006C1102080A
:103C90000C0C0200841102080C0C02009C1102089A
:103CA0000C0C0200B41102080C0C0200CC1102082A
:103CB0000C0C0200E41102080C0C0200FC110208BA
:103CC0000C0C0200141202080C0C02002C12020848
:103CD0000C0C0200441202080C0C02005C120208D8
:103CE0000C0C0200741202080C0C02008C12020868
:103CF0000C0C0200A41202080C0C0200BC120208F8
:103D00000C0C0200D41202080C0C0200EC12020887
:103D10000C0C0200041302080C0C02001C13020815
:103D20000C0C0200341302080C0C02004C130208A5
:103D30000C0C0200641302080C0C02007C13020835
:103D40000C0C0200941302080C0C0200AC130208C5
:103D50000C0C0200C41302080C0C0200DC13020855
:103D60000C0C0200F41302080C0C02000C140208E4
:103D70000C0C0200241402080C0C02003C14020873
:103D80000C0C0200541402080C0C02006C14020803
:103D90000C0C0200841402080C0C02009C14020893
:103DA0000C0C0200B41402080C0C0200CC14020823
:103DB0000C0C0200E41402080C0C0200FC140208B3
:103DC0000C0C0200141502080C0C02002C15020841
:103DD0000C0C0200441502080C0C02005C150208D1
:103DE0000C0C0200741502080C0C02008C15020861
:103DF0000C0C0200A41502080C0C0200BC150208F1
:103E00000C0C0200D41502080C0C0200EC15020880
:103E10000C0C0200041602080C0C02001C1602080E
:103E20000C0C0200341602080C0C02004C1602089E
:103E30000C0C0200641602080C0C02007C1602082E
:103E40000C0C0200941602080C0C0200AC160208BE
:103E50000C0C0200C41602080C0C0200DC1602084E
:103E60000C0C0200F41602080C0C02000C170208DD
:103E70000C0C0200241702080C0C02003C1702086C
:103E80000C0C0200541702080C0C02006C170208FC
:103E90000C0C0200841702080C0C02009C1702088C
:103EA0000C0C0200B41702080C0C0200CC1702081C
:103EB0000C0C0200E41702080C0C0200FC170208AC
:103EC0000C0C0200141802080C0C02002C1802083A
:103ED0000C0C0200441802080C0C02005C180208CA
:103EE0000C0C0200741802080C0C02008C1802085A
:103EF0000C0C0200A41802080C0C0200BC180208EA
:103F00000C0C0200D41802080C0C0200EC18020879
:103F10000C0C0200041902080C0C02001C19020807
:103F20000C0C0200341902080C0C02004C19020897
:103F30000C0C0200641902080C0C02007C19020827
:103F40000C0C0200941902080C0C0200AC190208B7
:103F50000C0C0200C41902080C0C0200DC19020847
:103F60000C0C0200F41902080C0C02000C1A0208D6
:103F70000C0C0200241A02080C0C02003C1A020865
:103F80000C0C0200541A02080C0C02006C1A0208F5
:103F90000C0C0200841A02080C0C02009C1A020885
:103FA0000C0C0200B41A02080C0C0200CC1A020815
:103FB0000C0C0200E41A02080C0C0200FC1A0208A5
:103FC0000C0C0200141B02080C0C02002C1B020833
:103FD0000C0C0200441B02080C0C02005C1B0208C3
:103FE0000C0C0200741B02080C0C02008C1B020853
:103FF0000C0C0200A41B02080C0C0200BC1B0208E3
:104000000C0C0200D41B02080C0C0200EC1B020872
:104010000C0C0200041C02080C0C02001C1C020800
:104020000C0C0200341C02080C0C02004C1C020890
:104030000C0C0200641C02080C0C02007C1C020820
:104040000C0C0200941C02080C0C0200AC1C0208B0
:104050000C0C0200C41C02080C0C0200DC1C020840
:104060000C0C0200F41C02080C0C02000C1D0208CF
:104070000C0C0200241D02080C0C02003C1D02085E
:104080000C0C0200541D02080C0C02006C1D0208EE
:104090000C0C0200841D02080C0C02009C1D02087E
:1040A0000C0C0200B41D02080C0C0200CC1D02080E
:1040B0000C0C0200E41D02080C0C0200FC1D02089E
:1040C0000C0C0200141E02080C0C02002C1E02082C
:1040D0000C0C0200441E02080C0C02005C1E0208BC
:1040E0000C0C0200741E02080C0C02008C1E02084C
:1040F0000C0C0200A41E02080C0C0200BC1E0208DC
:104100000C0C0200D41E02080C0C0200EC1E02086B
:104110000C0C0200041F02080C0C02001C1F0208F9
:104120000C0C0200341F02080C0C02004C1F020889
:104130000C0C0200641F02080C0C02007C1F020819
:104140000C0C0200941F02080C0C0200AC1F0208A9
:104150000C0C0200C41F02080C0C0200DC1F020839
:104160000C0C0200F41F02080C0C02000C200208C8
:104170000C0C0200242002080C0C02003C20020857
:104180000C0C0200542002080C0C02006C200208E7
:104190000C0C0200842002080C0C02009C20020877
:1041A0000C0C0200B42002080C0C0200CC20020807
:1041B0000C0C0200E42002080C0C0200FC20020897
:1041C0000C0C0200142102080C0C02002C21020825
:1041D0000C0C0200442102080C0C02005C210208B5
:1041E0000C0C0200742102080C0C02008C21020845
:1041F0000C0C0200A42102080C0C0200BC210208D5
:104200000C0C0200D42102080C0C0200EC21020864
:104210000C0C0200042202080C0C02001C220208F2
:104220000C0C0200342202080C0C02004C22020882
:104230000C0C0200642202080C0C02007C22020812
:104240000C0C0200942202080C0C0200AC220208A2
:104250000C0C0200C42202080C0C0200DC22020832
:104260000C0C0200F42202080C0C02000C230208C1
:104270000C0C0200242302080C0C02003C23020850
:104280000C0C0200542302080C0C02006C230208E0
:104290000C0C0200842302080C0C02009C23020870
:1042A0000C0C0200B42302080C0C0200CC23020800
:1042B0000C0C0200E42302080C0C0200FC23020890
:1042C0000C0C0200142402080C0C02002C2402081E
:1042D0000C0C0200442402080C0C02005C240208AE
:1042E0000C0C0200742402080C0C02008C2402083E
:1042F0000C0C0200A42402080C0C0200BC240208CE
:104300000C0C0200D42402080C0C0200EC2402085D
:104310000C0C0200042502080C0C02001C250208EB
:104320000C0C0200342502080C0C02004C2502087B
:104330000C0C0200642502080C0C02007C2502080B
:104340000C0C0200942502080C0C0200AC2502089B
:104350000C0C0200C42502080C0C0200DC2502082B
:104360000C0C0200F42502080C0C02000C260208BA
:104370000C0C0200242602080C0C02003C26020849
:104380000C0C0200542602080C0C02006C260208D9
:104390000C0C0200842602080C0C02009C26020869
:1043A0000C0C0200B42602080C0C0200CC260208F9
:1043B0000C0C0200E42602080C0C0200FC26020889
:1043C0000C0C0200142702080C0C02002C27020817
:1043D0000C0C0200442702080C0C02005C270208A7
:1043E0000C0C0200742702080C0C02008C27020837
:1043F0000C0C0200A42702080C0C0200BC270208C7
:104400000C0C0200D42702080C0C0200EC27020856
:104410000C0C0200042802080C0C02001C280208E4
:104420000C0C0200342802080C0C02004C28020874
:104430000C0C0200642802080C0C02007C28020804
:104440000C0C0200942802080C0C0200AC28020894
:104450000C0C0200C42802080C0C0200DC28020824
:104460000C0C0200F42802080C0C02000C290208B3
:104470000C0C0200242902080C0C02003C29020842
:104480000C0C0200542902080C0C02006C290208D2
:104490000C0C0200842902080C0C02009C29020862
:1044A0000C0C0200B42902080C0C0200CC290208F2
:1044B0000C0C0200E42902080C0C0200FC29020882
:1044C0000C0C0200142A02080C0C02002C2A020810
:1044D0000C0C0200442A02080C0C02005C2A0208A0
:1044E0000C0C0200742A02080C0C02008C2A020830
:1044F0000C0C0200A42A02080C0C0200BC2A0208C0
:104500000C0C0200D42A02080C0C0200EC2A02084F
:104510000C0C0200042B02080C0C02001C2B0208DD
:104520000C0C0200342B02080C0C02004C2B02086D
:104530000C0C0200642B02080C0C02007C2B0208FD
:104540000C0C0200942B02080C0C0200AC2B02088D
:104550000C0C0200C42B02080C0C0200DC2B02081D
:104560000C0C0200F42B02080C0C02000C2C0208AC
:104570000C0C0200242C02080C0C02003C2C02083B
:104580000C0C0200542C02080C0C02006C2C0208CB
:104590000C0C0200842C02080C0C02009C2C02085B
:1045A0000C0C0200B42C02080C0C0200CC2C0208EB
:1045B0000C0C0200E42C02080C0C0200FC2C02087B
:1045C0000C0C0200142D02080C0C02002C2D020809
:1045D0000C0C0200442D02080C0C02005C2D020899
:1045E0000C0C0200742D02080C0C02008C2D020829
:1045F0000C0C0200A42D02080C0C0200BC2D0208B9
:104600000C0C0200D42D02080C0C0200EC2D020848
:104610000C0C0200042E02080C0C02001C2E0208D6
:104620000C0C0200342E02080C0C02004C2E020866
:104630000C0C0200642E02080C0C02007C2E0208F6
:104640000C0C0200942E02080C0C0200AC2E020886
:104650000C0C0200C42E02080C0C0200DC2E020816
:104660000C0C0200F42E02080C0C02000C2F0208A5
:104670000C0C0200242F02080C0C02003C2F020834
:104680000C0C0200542F02080C0C02006C2F0208C4
:104690000C0C0200842F02080C0C02009C2F020854
:1046A0000C0C0200B42F02080C0C0200CC2F0208E4
:1046B0000C0C0200E42F02080C0C0200FC2F020874
:1046C0000C0C0200143002080C0C02002C30020802
:1046D0000C0C0200443002080C0C02005C30020892
:1046E0000C0C0200743002080C0C02008C30020822
:1046F0000C0C0200A43002080C0C0200BC300208B2
:104700000C0C0200D43002080C0C0200EC30020841
:104710000C0C0200043102080C0C02001C310208CF
:104720000C0C0200343102080C0C02004C3102085F
:104730000C0C0200643102080C0C02007C310208EF
:104740000C0C0200943102080C0C0200AC3102087F
:104750000C0C0200C43102080C0C0200DC3102080F
:104760000C0C0200F43102080C0C02000C3202089E
:104770000C0C0200243202080C0C02003C3202082D
:104780000C0C0200543202080C0C02006C320208BD
:104790000C0C0200843202080C0C02009C3202084D
:1047A0000C0C0200B43202080C0C0200CC320208DD
:1047B0000C0C0200E43202080C0C0200FC3202086D
:1047C0000C0C0200143302080C0C02002C330208FB
:1047D0000C0C0200443302080C0C02005C3302088B
:1047E0000C0C0200743302080C0C02008C3302081B
:1047F0000C0C0200A43302080C0C0200BC330208AB
:104800000C0C0200D43302080C0C0200EC3302083A
:104810000C0C0200043402080C0C02001C340208C8
:104820000C0C0200343402080C0C02004C34020858
:104830000C0C0200643402080C0C02007C340208E8
:104840000C0C0200943402080C0C0200AC34020878
:104850000C0C0200C43402080C0C0200DC34020808
:104860000C0C0200F43402080C0C02000C35020897
:104870000C0C0200243502080C0C02003C35020826
:104880000C0C0200543502080C0C02006C350208B6
:104890000C0C0200843502080C0C02009C35020846
:1048A0000C0C0200B43502080C0C0200CC350208D6
:1048B0000C0C0200E43502080C0C0200FC35020866
:1048C0000C0C0200143602080C0C02002C360208F4
:1048D0000C0C0200443602080C0C02005C36020884
:1048E0000C0C0200743602080C0C02008C36020814
:1048F0000C0C0200A43602080C0C0200BC360208A4
:104900000C0C0200D43602080C0C0200EC36020833
:104910000C0C0200043702080C0C02001C370208C1
:104920000C0C0200343702080C0C02004C37020851
:104930000C0C0200643702080C0C02007C370208E1
:104940000C0C0200943702080C0C0200AC37020871
:104950000C0C0200C43702080C0C0200DC37020801
:104960000C0C0200F43702080C0C02000C38020890
:104970000C0C0200243802080C0C02003C3802081F
:104980000C0C0200543802080C0C02006C380208AF
:104990000C0C0200843802080C0C02009C3802083F
:1049A0000C0C0200B43802080C0C0200CC380208CF
:1049B0000C0C0200E43802080C0C0200FC3802085F
:1049C0000C0C0200143902080C0C02002C390208ED
:1049D0000C0C0200443902080C0C02005C3902087D
:1049E0000C0C0200743902080C0C02008C3902080D
:1049F0000C0C0200A43902080C0C0200BC3902089D
:104A00000C0C0200D43902080C0C0200EC3902082C
:104A10000C0C0200043A02080C0C02001C3A0208BA
:104A20000C0C0200343A02080C0C02004C3A02084A
:104A30000C0C0200643A02080C0C02007C3A0208DA
:104A40000C0C0200943A02080C0C0200AC3A02086A
:104A50000C0C0200C43A02080C0C0200DC3A0208FA
:104A60000C0C0200F43A02080C0C02000C3B020889
:104A70000C0C0200243B02080C0C02003C3B020818
:104A80000C0C0200543B02080C0C02006C3B0208A8
:104A90000C0C0200843B02080C0C02009C3B020838
:104AA0000C0C0200B43B02080C0C0200CC3B0208C8
:104AB0000C0C0200E43B02080C0C0200FC3B020858
:104AC0000C0C0200143C02080C0C02002C3C0208E6
:104AD0000C0C0200443C02080C0C02005C3C020876
:104AE0000C0C0200743C02080C0C02008C3C020806
:104AF0000C0C0200A43C02080C0C0200BC3C020896
:104B00000C0C0200D43C02080C0C0200EC3C020825
:104B10000C0C0200043D02080C0C02001C3D0208B3
:104B20000C0C0200343D02080C0C02004C3D020843
:104B30000C0C0200643D02080C0C02007C3D0208D3
:104B40000C0C0200943D02080C0C0200AC3D020863
:104B50000C0C0200C43D02080C0C0200DC3D0208F3
:104B60000C0C0200F43D02080C0C02000C3E020882
:104B70000C0C0200243E02080C0C02003C3E020811
:104B80000C0C0200543E02080C0C02006C3E0208A1
:104B90000C0C0200843E02080C0C02009C3E020831
:104BA0000C0C0200B43E02080C0C0200CC3E0208C1
:104BB0000C0C0200E43E02080C0C0200FC3E020851
:104BC0000C0C0200143F02080C0C02002C3F0208DF
:104BD0000C0C0200443F02080C0C02005C3F02086F
:104BE0000C0C0200743F02080C0C02008C3F0208FF
:104BF0000C0C0200A43F02080C0C0200BC3F02088F
:104C00000C0C0200D43F02080C0C0200EC3F02081E
:104C10000C0C0200044002080C0C02001C400208AC
:104C20000C0C0200344002080C0C02004C4002083C
:104C30000C0C0200644002080C0C02007C400208CC
:104C40000C0C0200944002080C0C0200AC4002085C
:104C50000C0C0200C44002080C0C0200DC400208EC
:104C60000C0C0200F44002080C0C02000C4102087B
:104C70000C0C0200244102080C0C02003C4102080A
:104C80000C0C0200544102080C0C02006C4102089A
:104C90000C0C0200844102080C0C02009C4102082A
:104CA0000C0C0200B44102080C0C0200CC410208BA
:104CB0000C0C0200E44102080C0C0200FC4102084A
:104CC0000C0C0200144202080C0C02002C420208D8
:104CD0000C0C0200444202080C0C02005C42020868
:104CE0000C0C0200744202080C0C02008C420208F8
:104CF0000C0C0200A44202080C0C0200BC42020888
:104D00000C0C0200D44202080C0C0200EC42020817
:104D10000C0C0200044302080C0C02001C430208A5
:104D20000C0C0200344302080C0C02004C43020835
:104D30000C0C0200644302080C0C02007C430208C5
:104D40000C0C0200944302080C0C0200AC43020855
:104D50000C0C0200C44302080C0C0200DC430208E5
:104D60000C0C0200F44302080C0C02000C44020874
:104D70000C0C0200244402080C0C02003C44020803
:104D80000C0C0200544402080C0C02006C44020893
:104D90000C0C0200844402080C0C02009C44020823
:104DA0000C0C0200B44402080C0C0200CC440208B3
:104DB0000C0C0200E44402080C0C0200FC44020843
:104DC0000C0C0200144502080C0C02002C450208D1
:104DD0000C0C0200444502080C0C02005C45020861
:104DE0000C0C0200744502080C0C02008C450208F1
:104DF0000C0C0200A44502080C0C0200BC45020881
:104E00000C0C0200D44502080C0C0200EC45020810
:104E10000C0C0200044602080C0C02001C4602089E
:104E20000C0C0200344602080C0C02004C4602082E
:104E30000C0C0200644602080C0C02007C460208BE
:104E40000C0C0200944602080C0C0200AC4602084E
:104E50000C0C0200C44602080C0C0200DC460208DE
:104E60000C0C0200F44602080C0C02000C4702086D
:104E70000C0C0200244702080C0C02003C470208FC
:104E80000C0C0200544702080C0C02006C4702088C
:104E90000C0C0200844702080C0C02009C4702081C
:104EA0000C0C0200B44702080C0C0200CC470208AC
:104EB0000C0C0200E44702080C0C0200FC4702083C
:104EC0000C0C0200144802080C0C02002C480208CA
:104ED0000C0C0200444802080C0C02005C4802085A
:104EE0000C0C0200744802080C0C02008C480208EA
:104EF0000C0C0200A44802080C0C0200BC4802087A
:104F00000C0C0200D44802080C0C0200EC48020809
:104F10000C0C0200044902080C0C02001C49020897
:104F20000C0C0200344902080C0C02004C49020827
:104F30000C0C0200644902080C0C02007C490208B7
:104F40000C0C0200944902080C0C0200AC49020847
:104F50000C0C0200C44902080C0C0200DC490208D7
:104F60000C0C0200F44902080C0C02000C4A020866
:104F70000C0C0200244A02080C0C02003C4A0208F5
:104F80000C0C0200544A02080C0C02006C4A020885
:104F90000C0C0200844A02080C0C02009C4A020815
:104FA0000C0C0200B44A02080C0C0200CC4A0208A5
:104FB0000C0C0200E44A02080C0C0200FC4A020835
:104FC0000C0C0200144B02080C0C02002C4B0208C3
:104FD0000C0C0200444B02080C0C02005C4B020853
:104FE0000C0C0200744B02080C0C02008C4B0208E3
:104FF0000C0C0200A44B02080C0C0200BC4B020873
:105000000C0C0200D44B02080C0C0200EC4B020802
:105010000C0C0200044C02080C0C02001C4C020890
:105020000C0C0200344C02080C0C02004C4C020820
:105030000C0C0200644C02080C0C02007C4C0208B0
:105040000C0C0200944C02080C0C0200AC4C020840
:105050000C0C0200C44C02080C0C0200DC4C0208D0
:105060000C0C0200F44C02080C0C02000C4D02085F
:105070000C0C0200244D02080C0C02003C4D0208EE
:105080000C0C0200544D02080C0C02006C4D02087E
:105090000C0C0200844D02080C0C02009C4D02080E
:1050A0000C0C0200B44D02080C0C0200CC4D02089E
:1050B0000C0C0200E44D02080C0C0200FC4D02082E
:1050C0000C0C0200144E02080C0C02002C4E0208BC
:1050D0000C0C0200444E02080C0C02005C4E02084C
:1050E0000C0C0200744E02080C0C02008C4E0208DC
:1050F0000C0C0200A44E02080C0C0200BC4E02086C
:105100000C0C0200D44E02080C0C0200EC4E0208FB
:105110000C0C0200044F02080C0C02001C4F020889
:105120000C0C0200344F02080C0C02004C4F020819
:105130000C0C0200644F02080C0C02007C4F0208A9
:105140000C0C0200944F02080C0C0200AC4F020839
:105150000C0C0200C44F02080C0C0200DC4F0208C9
:105160000C0C0200F44F02080C0C02000C50020858
:105170000C0C0200245002080C0C02003C500208E7
:105180000C0C0200545002080C0C02006C50020877
:105190000C0C0200845002080C0C02009C50020807
:1051A0000C0C0200B45002080C0C0200CC50020897
:1051B0000C0C0200E45002080C0C0200FC50020827
:1051C0000C0C0200145102080C0C02002C510208B5
:1051D0000C0C0200445102080C0C02005C51020845
:1051E0000C0C0200745102080C0C02008C510208D5
:1051F0000C0C0200A45102080C0C0200BC51020865
:105200000C0C0200D45102080C0C0200EC510208F4
:105210000C0C0200045202080C0C02001C52020882
:105220000C0C0200345202080C0C02004C52020812
:105230000C0C0200645202080C0C02007C520208A2
:105240000C0C0200945202080C0C0200AC52020832
:105250000C0C0200C45202080C0C0200DC520208C2
:105260000C0C0200F45202080C0C02000C53020851
:105270000C0C0200245302080C0C02003C530208E0
:105280000C0C0200545302080C0C02006C53020870
:105290000C0C0200845302080C0C02009C53020800
:1052A0000C0C0200B45302080C0C0200CC53020890
:1052B0000C0C0200E45302080C0C0200FC53020820
:1052C0000C0C0200145402080C0C02002C540208AE
:1052D0000C0C0200445402080C0C02005C5402083E
:1052E0000C0C0200745402080C0C02008C540208CE
:1052F0000C0C0200A45402080C0C0200BC5402085E
:105300000C0C0200D45402080C0C0200EC540208ED
:105310000C0C0200045502080C0C02001C5502087B
:105320000C0C0200345502080C0C02004C5502080B
:105330000C0C0200645502080C0C02007C5502089B
:105340000C0C0200945502080C0C0200AC5502082B
:105350000C0C0200C45502080C0C0200DC550208BB
:105360000C0C0200F45502080C0C02000C5602084A
:105370000C0C0200245602080C0C02003C560208D9
:105380000C0C0200545602080C0C02006C56020869
:105390000C0C0200845602080C0C02009C560208F9
:1053A0000C0C0200B45602080C0C0200CC56020889
:1053B0000C0C0200E45602080C0C0200FC56020819
:1053C0000C0C0200145702080C0C02002C570208A7
:1053D0000C0C0200445702080C0C02005C57020837
:1053E0000C0C0200745702080C0C02008C570208C7
:1053F0000C0C0200A45702080C0C0200BC57020857
:105400000C0C0200D45702080C0C0200EC570208E6
:105410000C0C0200045802080C0C02001C58020874
:105420000C0C0200345802080C0C02004C58020804
:105430000C0C0200645802080C0C02007C58020894
:105440000C0C0200945802080C0C0200AC58020824
:105450000C0C0200C45802080C0C0200DC580208B4
:105460000C0C0200F45802080C0C02000C59020843
:105470000C0C0200245902080C0C02003C590208D2
:105480000C0C0200545902080C0C02006C59020862
:105490000C0C0200845902080C0C02009C590208F2
:1054A0000C0C0200B45902080C0C0200CC59020882
:1054B0000C0C0200E45902080C0C0200FC59020812
:1054C0000C0C0200145A02080C0C02002C5A0208A0
:1054D0000C0C0200445A02080C0C02005C5A020830
:1054E0000C0C0200745A02080C0C02008C5A0208C0
:1054F0000C0C0200A45A02080C0C0200BC5A020850
:105500000C0C0200D45A02080C0C0200EC5A0208DF
:105510000C0C0200045B02080C0C02001C5B02086D
:105520000C0C0200345B02080C0C02004C5B0208FD
:105530000C0C0200645B02080C0C02007C5B02088D
:105540000C0C0200945B02080C0C0200AC5B02081D
:105550000C0C0200C45B02080C0C0200DC5B0208AD
:105560000C0C0200F45B02080C0C02000C5C02083C
:105570000C0C0200245C02080C0C02003C5C0208CB
:105580000C0C0200545C02080C0C02006C5C02085B
:105590000C0C0200845C02080C0C02009C5C0208EB
:1055A0000C0C0200B45C02080C0C0200CC5C02087B
:1055B0000C0C0200E45C02080C0C0200FC5C02080B
:1055C0000C0C0200145D02080C0C02002C5D020899
:1055D0000C0C0200445D02080C0C02005C5D020829
:1055E0000C0C0200745D02080C0C02008C5D0208B9
:1055F0000C0C0200A45D02080C0C0200BC5D020849
:105600000C0C0200D45D02080C0C0200EC5D0208D8
:105610000C0C0200045E02080C0C02001C5E020866
:105620000C0C0200345E02080C0C02004C5E0208F6
:105630000C0C0200645E02080C0C02007C5E020886
:105640000C0C0200945E02080C0C0200AC5E020816
:105650000C0C0200C45E02080C0C0200DC5E0208A6
:105660000C0C0200F45E02080C0C02000C5F020835
:105670000C0C0200245F02080C0C02003C5F0208C4
:105680000C0C0200545F02080C0C02006C5F020854
:105690000C0C0200845F02080C0C02009C5F0208E4
:1056A0000C0C0200B45F02080C0C0200CC5F020874
:1056B0000C0C0200E45F02080C0C0200FC5F020804
:1056C0000C0C0200146002080C0C02002C60020892
:1056D0000C0C0200446002080C0C02005C60020822
:1056E0000C0C0200746002080C0C02008C600208B2
:1056F0000C0C0200A46002080C0C0200BC60020842
:105700000C0C0200D46002080C0C0200EC600208D1
:105710000C0C0200046102080C0C02001C6102085F
:105720000C0C0200346102080C0C02004C610208EF
:105730000C0C0200646102080C0C02007C6102087F
:105740000C0C0200946102080C0C0200AC6102080F
:105750000C0C0200C46102080C0C0200DC6102089F
:105760000C0C0200F46102080C0C02000C6202082E
:105770000C0C0200246202080C0C02003C620208BD
:105780000C0C0200546202080C0C02006C6202084D
:105790000C0C0200846202080C0C02009C620208DD
:1057A0000C0C0200B46202080C0C0200CC6202086D
:1057B0000C0C0200E46202080C0C0200FC620208FD
:1057C0000C0C0200146302080C0C02002C6302088B
:1057D0000C0C0200446302080C0C02005C6302081B
:1057E0000C0C0200746302080C0C02008C630208AB
:1057F0000C0C0200A46302080C0C0200BC6302083B
:105800000C0C0200D46302080C0C0200EC630208CA
:105810000C0C0200046402080C0C02001C64020858
:105820000C0C0200346402080C0C02004C640208E8
:105830000C0C0200646402080C0C02007C64020878
:105840000C0C0200946402080C0C0200AC64020808
:105850000C0C0200C46402080C0C0200DC64020898
:105860000C0C0200F46402080C0C02000C65020827
:105870000C0C0200246502080C0C02003C650208B6
:105880000C0C0200546502080C0C02006C65020846
:105890000C0C0200846502080C0C02009C650208D6
:1058A0000C0C0200B46502080C0C0200CC65020866
:1058B0000C0C0200E46502080C0C0200FC650208F6
:1058C0000C0C0200146602080C0C02002C66020884
:1058D0000C0C0200446602080C0C02005C66020814
:1058E0000C0C0200746602080C0C02008C660208A4
:1058F0000C0C0200A46602080C0C0200BC66020834
:105900000C0C0200D46602080C0C0200EC660208C3
:105910000C0C0200046702080C0C02001C67020851
:105920000C0C0200346702080C0C02004C670208E1
:105930000C0C0200646702080C0C02007C67020871
:105940000C0C0200946702080C0C0200AC67020801
:105950000C0C0200C46702080C0C0200DC67020891
:105960000C0C0200F46702080C0C02000C68020820
:105970000C0C0200246802080C0C02003C680208AF
:105980000C0C0200546802080C0C02006C6802083F
:105990000C0C0200846802080C0C02009C680208CF
:1059A0000C0C0200B46802080C0C0200CC6802085F
:1059B0000C0C0200E46802080C0C0200FC680208EF
:1059C0000C0C0200146902080C0C02002C6902087D
:1059D0000C0C0200446902080C0C02005C6902080D
:1059E0000C0C0200746902080C0C02008C6902089D
:1059F0000C0C0200A46902080C0C0200BC6902082D
:105A00000C0C0200D46902080C0C0200EC690208BC
:105A10000C0C0200046A02080C0C02001C6A02084A
:105A20000C0C0200346A02080C0C02004C6A0208DA
:105A30000C0C0200646A02080C0C02007C6A02086A
:105A40000C0C0200946A02080C0C0200AC6A0208FA
:105A50000C0C0200C46A02080C0C0200DC6A02088A
:105A60000C0C0200F46A02080C0C02000C6B020819
:105A70000C0C0200246B02080C0C02003C6B0208A8
:105A80000C0C0200546B02080C0C02006C6B020838
:105A90000C0C0200846B02080C0C02009C6B0208C8
:105AA0000C0C0200B46B02080C0C0200CC6B020858
:105AB0000C0C0200E46B02080C0C0200FC6B0208E8
:105AC0000C0C0200146C02080C0C02002C6C020876
:105AD0000C0C0200446C02080C0C02005C6C020806
