:020000040800F2
:10000000100D002001010008250400080D03000860
:1000100021040008D1010008910A00080000000036
:1000200000000000000000000000000011060008B1
:10003000F901000800000000B1040008F9060008FA
:10004000BD0A00081B0100081B0100081B01000875
:100050001B0100081B0100081B0100081B01000810
:100060001B0100081B0100081B0100081B01000800
:100070001B0100081B0100081B0100081B010008F0
:100080001B0100081B0100081B0100081B010008E0
:100090001B0100081B0100081B0100081B010008D0
:1000A0001B0100081B0100081B0100081B010008C0
:1000B0001B0100081B0100081B0100081B010008B0
:1000C0001B0100081B0100081B0100081B010008A0
:1000D0001B010008910700081B0100081B01000814
:1000E0001B0100081B0100081B010008DFF80CD0F1
:1000F00000F02EF800480047E9130008100D00201A
:100100000648804706480047FEE7FEE7FEE7FEE7B1
:10011000FEE7FEE7FEE7FEE7FEE7FEE73107000841
:10012000ED00000830B50B460146002020220124D6
:1001300009E021FA02F59D4205D303FA02F5491BB5
:1001400004FA02F52844151EA2F10102F1DC30BDCB
:10015000064C074D06E0E06840F0010394E8070014
:1001600098471034AC42F6D3FFF7C4FF24140008BC
:10017000441400087047000010B5012080F3108877
:1001800000BF0F4800680F490860002080F3108806
:1001900000BF0D480068096888420FD00948006810
:1001A0000949086009480068401C08490860B0F522
:1001B0007A7F03D30020086001F024F910BD00000D
:1001C000500000207C0000208000002084000020DF
:1001D00000BFFEE708B54FF4E06000F05FF92520AE
:1001E0008DF8000000208DF8020001208DF803003A
:1001F000684600F019F908BD70472DE9F041024644
:1002000000250026002000230024002791F803C0C9
:100210000CF00F0591F803C01CF0100F03D091F8FB
:1002200002C04CEA050591F800C0BCF1000F31D0C6
:10023000146800202BE04FF0010C0CFA00F3B1F829
:1002400000C00CEA03069E4220D183004FF00F0C41
:100250000CFA03F7BC4305FA03FC4CEA040491F8DA
:1002600003C0BCF1280F06D14FF0010C0CFA00FCC2
:10027000C2F814C00AE091F803C0BCF1480F05D1E0
:100280004FF0010C0CFA00FCC2F810C0401C08280A
:10029000D1D31460B1F800C0BCF1FF0F34DD546855
:1002A00000202EE000F1080C4FF0010808FA0CF3D2
:1002B000B1F800C00CEA03069E4221D183004FF042
:1002C0000F0C0CFA03F7BC4305FA03FC4CEA0404D8
:1002D00091F803C0BCF1280F05D100F1080C08FA11
:1002E0000CF8C2F8148091F803C0BCF1480F07D194
:1002F00000F1080C4FF0010808FA0CF8C2F8108061
:10030000401C0828CED35460BDE8F08100BFFEE752
:100310004CF6CC40014908607047000000300040B6
:100320004AF6AA20014908607047000000300040EA
:100330000149486070470000003000400149886072
:10034000704700000030004001490860704700001D
:100350000030004000B585B00121042000F0BAF85B
:100360000121880300F0B6F818208DF813004FF42F
:100370000070ADF8100003208DF8120004A9184891
:10038000FFF73BFF04208DF813000002ADF81000CA
:1003900004A91348FFF731FF4FF4E130009000202B
:1003A000ADF80400ADF80600ADF80800ADF80C009B
:1003B0000C20ADF80A0069460A4800F063FA0122F1
:1003C00040F22551074800F037FA0121054800F0B6
:1003D000F0F94021034800F0E3F905B000BD00004A
:1003E00000080140003801400448006810F4005F34
:1003F00001D1012070470020FCE7000008080140FF
:100400000448006810F4004F01D10120704700201B
:10041000FCE700000808014010B5FFF781FF10BDA0
:1004200000BFFEE77047000070B5002100230F22D7
:10043000C4780CB3164C246804F4E064C4F5E0649A
:10044000210AC1F10403CA40447804FA03F1847814
:100450001440214309010F4C0678A155047804F09B
:100460001F050124AC4005786D114FF0E02606EB26
:100470008505C5F8004109E0047804F01F05012452
:10048000AC40054D0678761145F8264070BD000059
:100490000CED00E000E400E080E100E002490143EF
:1004A000024A1160704700000000FA050CED00E000
:1004B0007047000029B1064AD2690243044BDA6151
:1004C00004E0034AD2698243014BDA6170470000BD
:1004D0000010024029B1064A92690243044B9A6116
:1004E00004E0034A92698243014B9A61704700001D
:1004F0000010024030B500210022002400232D4DC1
:100500006D6805F00C0121B1042905D0082923D11B
:1005100005E0294D056022E0274D05601FE0254DCF
:100520006D6805F47012234D6D6805F48034022562
:1005300005EB92421CB9214D554305600BE01D4D62
:100540006D6815F4003F03D01C4D5543056002E073
:10055000194D5543056002E0174D056000BF00BF0F
:10056000144D6D6805F0F0010909154D6B5C0568C7
:10057000DD4045600F4D6D6805F4E061090A104DDE
:100580006B5C4568DD4085600A4D6D6805F460511F
:10059000C90A0B4D6B5C4568DD40C560054D6D6853
:1005A00005F44041890B074D6B5CC568B5FBF3F55D
:1005B000056130BD0010024000127A0000093D00C4
:1005C000000000201000002010B50146002200238A
:1005D00000204A11012A02D1094C236806E0022AB0
:1005E00002D1074C236A01E0054C636A01F01F0247
:1005F000012494401C4201D0012000E0002010BDE5
:100600000010024001490860704700008004424227
:10061000704710B500F002F810BD00000CB50020C6
:10062000019000903248006840F480303049086002
:1006300000BF2F48006800F4003000900198401C73
:100640000190009818B90198B0F5A06FF1D1284831
:10065000006810F4003F02D00120009001E000206B
:1006600000900098012842D12248006840F0100014
:10067000204908600846006820F00300086008462A
:10068000006840F002000860194840681849486056
:100690000846406848600846406840F4806048600A
:1006A0000846406820F47C1048600846406840F4E2
:1006B000E81048600846006840F08070086000BF9D
:1006C0000B48006810F0007FFAD00948406820F01D
:1006D0000300074948600846406840F0020048604F
:1006E00000BF0348406800F00C000828F9D10CBD99
:1006F000001002400020024010B500F001F810BDCB
:1007000008480068401C074908600748006840B175
:1007100005480068401E0449086002D101200349D1
:10072000087070475000002054000020580000203E
:1007300010B51348006840F00100114908600846F0
:100740004068104908400E494860084600680E4954
:1007500008400B4908600846006820F480200860C3
:100760000846406820F4FE0048604FF41F0088608F
:10077000FFF74FFF4FF000600449086010BD000014
:10078000001002400000FFF8FFFFF6FE08ED00E059
:1007900010B5024800F0EBF810BD0000E4000020A6
:1007A00001F40072B2F5007F00D100BFCA4302809D
:1007B000704721B1828942F40052828104E082892B
:1007C0004DF6FF731A408281704702460020B1F552
:1007D000007F00D100BF13880B4201D0012000E050
:1007E0000020704770B50246002400230025002039
:1007F000A1F510666A3E00D100BFC1F3421501F0B9
:100800001F03012606FA03F3012D02D19689334016
:1008100006E0022D02D1168A334001E0968A334069
:100820000C12012606FA04F41688344013B10CB1F8
:10083000012000E0002070BDF0B503460024002632
:1008400000250020A1F510676A3F00D100BF1846BF
:10085000C1F3421401F01F06012707FA06F5012C27
:1008600001D10C3004E0022C01D1103000E0143032
:100870001AB107682F43076002E00768AF430760BB
:10088000F0BD00002DE9F04786B005460E46002475
:10089000A24600BFA1460027B08900B100BF2F4685
:1008A0002C8A4CF6FF700440F08804432C82AC89FB
:1008B0004EF6F3100440B08831890843718908432B
:1008C0000443AC81AC8A4FF6FF400440B089044336
:1008D000AC8201A8FFF70EFE1F48874202D1DDF867
:1008E00010A001E0DDF80CA0A88910F4004F08D09A
:1008F0000AEBCA0000EB0A1031684900B0FBF1F8BE
:1009000007E00AEBCA0000EB0A1031688900B0FB6F
:10091000F1F86420B8FBF0F004012009642101FB28
:100920001089A88910F4004F08D0322000EBC900CC
:10093000B0FBF1F000F00700044308E0322000EBC8
:1009400009106421B0FBF1F000F00F0004432C818A
:1009500006B0BDE8F08700000038014001468888F5
:10096000C0F308007047C1F308028280704710B5D9
:10097000044640F225512068FFF734FFE0B12068BB
:10098000FFF7ECFFE28AA1688854E08A401C80B23D
:10099000E082E189884201DB0020E082608BE1890E
:1009A000884202DA608B401C6083608B012803D18F
:1009B000606A08B1606A804740F227712068FFF7DB
:1009C00011FF08B3A08A60B9002240F227712068A5
:1009D000FFF732FF012240F226612068FFF72CFF6B
:1009E00037E0638A6268D15C2068FFF7BCFF608AE9
:1009F000401C80B26082A189884201DB00206082B5
:100A0000A08A401EA08224E040F226612068FFF701
:100A1000E9FEF0B1A08A50B9002240F226612068B8
:100A2000FFF70AFF206AA0B1206A804711E0638ABD
:100A30006268D15C2068FFF796FF608A401C80B234
:100A40006082A189884201DB00206082A08A401E6A
:100A5000A08210BD0A480B4908600B4848600B484B
:100A600088604FF480608881C881002008824882B5
:100A7000C882088348838882C861086248627047D8
:100A800000380140E40000200C0100200C0500208B
:100A900000BFFEE70020014908607047082C0040B5
:100AA00040F08001014A116070470000002C0040B6
:100AB0000120014908607047A480054210B500F08C
:100AC0002EF810BD00F07F01014A11607047000050
:100AD000002C00400021044A126822F4C071014336
:100AE000014A116070470000042C004008B5002145
:100AF00000910749096821F07F01009100F07F0112
:100B0000009A11430091024A0099116008BD00004B
:100B1000042C004010B57F20FFF7D4FF10BD10B5A6
:100B2000FFF7B8FFFFF7F6FF10BD000070B53226E3
:100B300000240025012080F3108800BF364800689B
:100B400036490860002080F3108800BF34480078E0
:100B5000002860D033480068096888425BD031487B
:100B600000682E490968884227D22C4800682D4920
:100B70000968441A294800682A49086000212A485F
:100B80000068221849416B1E00209A1A884104D23D
:100B9000012500202449086038E0234800682044EB
:100BA000322804D9012500201F4908602EE01E4884
:100BB000006820441C49086028E018480068401E6E
:100BC00018490968441A1548006816490860002148
:100BD00015480068231849414FF0FF320020D21A0F
:100BE000884104D2012500200F4908600EE00E481C
:100BF00000682044322804D9012500200A490860F1
:100C000004E009480068204407490860012D02D12A
:100C10000025FFF77FFF70BD500000202800002056
:100C2000340000202C000020300000200FB4054BC1
:100C300010B503A9044A029800F018F810BC5DF83A
:100C400014FB0000C51300088800002002E008C85B
:100C5000121F08C1002AFAD170477047002001E036
:100C600001C1121F002AFBD1704700002DE9FF4F80
:100C700089B09B460446002597E0252833D10027FC
:100C8000641C4E49B84601222378203B02FA03F047
:100C9000084202D00743641CF6E720782E2819D1B9
:100CA00014F8010F47F004072A280ED06FF02F0226
:100CB0002078A0F1300109290CD808EB880102EB5B
:100CC000410100EB0108641CF2E70A98641C50F82B
:100CD000048B0A90207800286BD0642808D06928FB
:100CE00006D0752820D05A460B9990476D1C5BE0C2
:100CF0000A994FF00A0901C90A91002804DAC0F1E3
:100D000000004FF02D0102E0390504D52B218DF8AC
:100D10002010012103E0F90704D02021F7E78A46DB
:100D200008AE0EE00021FAE70A994FF00A0901C95E
:100D30000A91F7E74946FFF7F5F901F1300106F8A6
:100D4000011D0028F6D1ADEB060000F1200978075F
:100D500001D44FF00108C84502DDA8EB090000E00E
:100D600000208046002706E008A85A46C05D0B997F
:100D700090476D1C7F1C5745F6DB04E030205A4637
:100D80000B9990476D1CB8F10001A8F10108F5DC42
:100D900005E016F8010B5A460B9990476D1CB9F106
:100DA0000001A9F10109F4DC641C207800287FF41B
:100DB00064AF0DB02846BDE8F08F0000092801009F
:100DC00070B50546304800EB0514206880470028C0
:100DD0003ED02079052802DA0520207152E02079E2
:100DE0000A2803DA2079401C20714BE0A07A38B938
:100DF0000120A07205EB4501491CC8B200F0CEFAF3
:100E0000208900283EDDE088218988420DDAE088CB
:100E1000401C80B2E0802189884233D105EB450136
:100E2000C91CC8B200F0BAFA2CE0E07A002829DD2B
:100E3000207B401CC0B22073E17A884222DB002074
:100E4000207305EB4501491CC8B200F0A7FA19E070
:100E50002079052802DD0520207110E0207918B1E5
:100E60002079401E20710AE0A07A012807D10020D5
:100E7000A07205EB4501891CC8B200F08FFA002072
:100E8000E080207370BD00008C0000200E4890F8B8
:100E900034000D4A92F83320904201D1002070476F
:100EA000094890F83400084A115C104690F8340064
:100EB000401CC0B282F83400322802DB002082F8E5
:100EC00034000846EBE70000AC00002010B5FFF747
:100ED0002DFEFFF7A1FA10BD10B500F0DDF800F00F
:100EE0007FF800F01FF800F0A7F800F0DDF810BD63
:100EF00010B50120FFF786FB00BF6120FFF764FB00
:100F00000028FAD045F25550FFF71EFA0220FFF7ED
:100F10000FFA40F2FF70FFF711FAFFF701FAFFF73F
:100F2000F7F910BD10B500F027F800F001F810BD7A
:100F300008B501210420FFF7CDFA48208DF8030001
:100F400003208DF802004FF40050ADF80000694610
:100F50000848FFF752F948208DF8030003208DF868
:100F600002004FF40040ADF8000069460148FFF769
:100F700044F908BD000801400021154A82F83210EA
:100F800082F8331082F83410002018E06421114AEE
:100F900002EB0012118102210E4A02EB00121171C4
:100FA00000210C4A02EB001291720A4A02EB001275
:100FB000D172084A02EB00121173411CC8B2022818
:100FC000E4DB0549034A11600449116170470000E0
:100FD000AC0000208C000020E90300080104000898
:100FE00008B501212420FFF775FA012000F042F92D
:100FF000022000F03FF910208DF8030003208DF847
:1010000002004FF48070ADF8000069460848FFF711
:10101000F4F810208DF8030003208DF8020004205E
:10102000ADF8000069460348FFF7E7F808BD000087
:10103000000801400014014030B5144800684FF426
:101040007A72B0FBF2F1B1F1807F00D31DE021F0A4
:101050007F40401E4FF0E022506150170F220028C1
:1010600007DA13071D0E0A4B00F00F04241F1D554D
:1010700003E013071C0E074B1C5400BF00204FF069
:10108000E02290610720106100BF30BD14000020F5
:1010900018ED00E000E400E010B5FFF7DBFCFFF71F
:1010A00059F9FFF797F810BD10B5FFF721FF00F0D1
:1010B00001F810BD08B50121C802FFF7FBF90020B7
:1010C0008DF800000A208DF8020001208DF8030041
:1010D0006846FFF7A9F94FF4C070FFF7FBFC5020FA
:1010E000FFF704FD7F20FFF7DBFCFFF7D3FCFFF7E2
:1010F000DFFC01200149087008BD00003400002019
:1011000010B5FFF7C3FE0446002C21D0072C1DD2DA
:10111000DFE804F01C04080C101418000DA0FFF701
:1011200085FD14E00EA0FFF781FD10E00FA0FFF792
:101130007DFD0CE010A0FFF779FD08E011A0FFF79E
:1011400075FD04E012A0FFF771FD00E000BF00BFD5
:1011500010BD00004B31BCFCB0B4CFC20D0A000082
:101160004B31BCFCB5AFC6F00D0A00004B31BCFCE6
:10117000B3A4B0B40D0A00004B32BCFCB0B4CFC273
:101180000D0A00004B32BCFCB5AFC6F00D0A0000E2
:101190004B32BCFCB3A4B0B40D0A000010B500245F
:1011A00004E02046FFF70CFE601CC4B2022CF8DB02
:1011B00010BD000070B50A2600240025012080F330
:1011C000108800BF2748006827490860002080F386
:1011D000108800BF254800680968884240D0FFF7A2
:1011E0008FFF2248006820490968884219D21E48AA
:1011F00000681E490968441A1B4800681B490860BA
:1012000000BF1B48006820440A2804D9012500209B
:10121000174908601FE01648006820441449086018
:1012200019E011480068401E10490968441A0E4828
:1012300000680E49086000BF0D48006820440A2875
:1012400004D9012500200A49086004E00848006824
:10125000204407490860012D02D10025FFF79EFFB9
:1012600070BD000050000020380000203C0000202D
:1012700040000020411EC8B218B94FF48071014AE5
:10128000116070471008014070B54FF4FA750023E3
:101290000024012080F3108800BF364800683649DA
:1012A0000860002080F3108800BF34480068096897
:1012B00088425ED0314800682F490968884228D2A8
:1012C0002D4800682D490968431A2B4800682B49AE
:1012D000086000212A4800681A184941661E00204B
:1012E000B21A884104D201240020254908603AE05E
:1012F000234800681844B0F5FA7F04D9012400207F
:101300001F4908602FE01E48006818441C49086007
:1013100029E019480068401E18490968431A164810
:101320000068164908600021154800681A184941EC
:101330004FF0FF360020B21A884104D20124002069
:101340000F4908600FE00E4800681844B0F5FA7FB6
:1013500004D9012400200A49086004E00848006814
:10136000184407490860012C03D10024012000F033
:1013700009F870BD50000020440000204800002003
:101380004C000020012805D10349096881F48071CF
:10139000014A1160704700000C080140084991F8AB
:1013A0003310074A5054114691F83310491CC9B202
:1013B00082F83310322902DB002182F833107047A3
:1013C000AC00002070B504460D46E1B20548FFF7B9
:1013D000CAFA00BF40210348FFF7F7F90028F9D007
:1013E000204670BD00380140FFF776FDFEF7C2FED3
:1013F00007E0FFF76BFDFFF7DDFEFFF745FFFEF7A8
:10140000BBFEF6E710B5054801880088401C034B79
:10141000188003A0FFF70AFC10BD00007A0000202E
:1014200025640A0044140008000000208C0000001D
:101430004C0C0008D01400088C000020840C000024
:101440005C0C000800000000010203040102030418
:10145000060708090204060800A24A04000000006A
:101460000000000001020304060708090000000054
:10147000000000000000000000000000000000006C
:10148000000000000000000000000000000000005C
:10149000000000000000000000000000000000004C
:1014A000000000000000000000000000000000003C
:1014B0000000000000000000E80300000000000041
:1014C000000000000000000000000000000000001C
:04000005080000ED02
:00000001FF
